:100000000C94702F0C94A12F0C94A12F0C94A12F61
:100010000C94A12F0C94A4C00C94A12F0C94A12F8C
:100020000C9435C40C94A12F0C9420910C94A12F06
:100030000C94A12F0D943F360C94A12F0C94A12F5A
:100040000C94A12F0C9449AB0C94A12F0C94A12FCC
:100050000C94A12F0C94A12F0C948CFE0D94E537D9
:100060000C94A12F0D9426680C94A12F0C94A12F11
:100070000C94A12F0C94A12F0C94A12F0C94A12FC0
:100080000C94A12F0C94A12F0C94A12F0C94A12FB0
:100090000D94E2670C94A12F0C94A12F0C94A12F26
:1000A0000C94A12F0C94A12F0C94A12F0C94A12F90
:1000B0000C94A12F0C94A12F0C94A12F0C94A12F80
:1000C0000C94A12F0C94A12F0C94A12F0D94C36B11
:1000D0000C94A12F0C94A12F0C94A12F0C94A12F60
:1000E0000C94A12F0F8F138F198F228F3A8F578F58
:1000F000948FCB8F12A61BA6DEA5C7A5A0A555A7DA
:100100003DA6A2A62AA763DA79DA8CDA99DAA3DA0D
:10011000D1DAF2DAF8DA06DB09DB0BDB15DB26DBFA
:1001200037DB5D0195014701BB01550161018F017D
:1001300071018901B50197015B014F01490161011D
:100140005701C501B7013D01B9016F013B017D01B7
:100150006B014B015901BD017B0193012B014D0145
:10016000AF016B019101AB01830167015F019B014D
:100170007501C90141013F0137012701C101390161
:10018000084AD73B3BCE016E84BCBFFDC12F3D6CFE
:1001900074319ABD56833DDA3D00C77F11BED9E464
:1001A000BB4C3E916BAAAABE000000803F05A84C44
:1001B000CDB2D44EB93836A9020C50B99186880810
:1001C0003CA6AAAA2ABE000000803F07634236B7B9
:1001D0009BD8A71A39685618AEBAAB558C1D3CB7D8
:1001E000CC5763BD6DEDFD753EF6177231BF000053
:1001F00000803F08000000BE922449123EABAAAA2C
:100200002ABECDCCCC4C3E00000080BEABAAAAAA30
:100210003E00000000BF000000803F000000000022
:10022000084178D3BB4387D1133D190E3CC3BD426F
:1002300082AD2B3E68EC8276BED98FE1A93E4C8020
:10024000EFFFBE01C4FF7F3F0000000000000D94DF
:10025000793F0D9440860D9457370D94D4340D9406
:10026000C9340D948B0F0D94CF340D94A9060D94C1
:100270006B3F0D949E3F0D9415370D9401370D94EF
:100280005D3F0D94573F0D9417130D94A4670D9483
:1002900057340D948C340D9429370D9466370D9492
:1002A00088340D9423860D945D850D9461340D94EE
:1002B00092340D9431370D9484340D9465340D943B
:1002C0001D3F0D949F340D946B140D94A1160D9445
:1002D0000F3F0D94DF150D9498370D94053C0D9448
:1002E0000B370D9470340D94B4860D94353F0D94F6
:1002F0007C840D9498A50D9443370D941F370D946D
:100300008D0F0D945B350D948E370D94BD670D9454
:10031000E5850D9476340D941A850D947A860D94A6
:100320006C340D947A370D944D370D9468340D94D8
:100330007E340D9405860D94233F0D94BA0F0D94D1
:10034000CE560D9497860D94F6850D94C5340D9474
:100350005D860D94CF840D9484370D94E9820D94BD
:1003600070370D941D840D9402130D947A340D94FE
:100370009A340D9406370D945B340D9439370D94EF
:1003800059130D94873F0D94369A0D9496340D941D
:100390006B830D94513F0D94D1860D94A1840D94DF
:1003A0004D356E616E00696E66004E414E494E4994
:1003B0005459494E46CDCCCC3D0AD7233C17B7D132
:1003C0003877CC2B329595E6241FB14F0A000020D8
:1003D000410000C84200401C4620BCBE4CCA1B0E57
:1003E0005AAEC59D7400407A10F35A00A0724E18A0
:1003F000090010A5D4E80000E87648170000E40BD7
:1004000054020000CA9A3B000000E1F5050000809C
:10041000969800000040420F000000A086010000F6
:1004200000102700000000E8030000000064000046
:100430000000000A00000000000100000000002C85
:1004400076D888DC674F0823DFC1DFAE59E1B1B74A
:1004500096E5E3E453C63AE651997696E8E6C28417
:1004600026EB898C9B62ED407C6FFCEFBC9C9F402F
:10047000F2BAA56FA5F490055A2AF75C936B6CF954
:10048000676DC11BFCE0E40D47FEF520E6B500D02A
:10049000ED902E0300943577050080841E0800003F
:1004A000204E0A000000C80C333333330F986E120D
:1004B000831141EF8D2114893BE65516CFFEE6DB13
:1004C00018D1844B381BF77C1D901DA4BBE424205D
:1004D0003284725E228100C9F124ECA1E53D2763DC
:1004E00064696E6F70737578585B0025642062795B
:1004F000746573207772697474656E20746F20451B
:100500004550524F4D20617420616464726573736D
:1005100020307825303478004433202D2052656116
:10052000642F577269746520454550524F4D0A003B
:1005300020436F756E7420583A2000534420707227
:10054000696E74696E67206279746520004E6F74FD
:1005500020696E206661726D206D6F64652E0041AA
:1005600063746976652045787472756465723A20A3
:1005700000496E76616C6964206578747275646593
:1005800072005A204F666673657400556E6B6E6F0D
:10059000776E20636F6D6D616E643A2022004D327C
:1005A000303020496E76616C6964206578747275AC
:1005B00064657220007A5F6D61783A20007A5F6D21
:1005C000696E3A2000795F6D61783A2000795F6D3D
:1005D000696E3A2000785F6D61783A20006F70652F
:1005E0006E0054524947474552454400785F6D6953
:1005F0006E3A20005265706F7274696E6720656E86
:100600006473746F70207374617475730000534960
:100610004C454E54004E4F524D414C002553204DF9
:100620004F44453A2050657263656E7420646F6E66
:10063000653A2025643B207072696E742074696D80
:10064000652072656D61696E696E6720696E206DE7
:10065000696E733A2025640A00456E642066696CF1
:1006600065206C69737400426567696E2066696C09
:1006700065206C6973740025643A2025640A000AB9
:1006800050494E44412074656D7065726174757295
:10069000653A20252E3166205A20736869667420D9
:1006A000286D6D293A20252E3366000A5374657033
:1006B0003A2025642F360A000A537465703A2025C3
:1006C000642F362028736B6970706564290A50495D
:1006D0004E44412074656D70657261747572653A3F
:1006E000202564205A20736869667420286D6D295E
:1006F0003A300A000A5A45524F3A20252E33660AEC
:100700000073746172742074656D706572617475C4
:1007100072653A20252E31660A0025642020252E98
:10072000326600255320583A20252E356620593A46
:1007300020252E3566205A3A20252E35660A00538C
:100740006C6565702E2E2E004E6F7420696E2066CB
:1007500061726D206D6F64652E0025640045303A2E
:1007600025642052504D0A50524E303A2564205292
:10077000504D0A002564004175746F0020452F44D8
:100780003D00416476616E6365204B3D004D323221
:10079000302053256900255346696C616D656E7480
:1007A0002073657474696E67733A2044697361627B
:1007B0006C65640A00255346696C616D656E742032
:1007C00073657474696E67733A0A25532020204D4F
:1007D0003230302044252E32660A0025535265748B
:1007E000726163743A20533D4C656E6774682028CB
:1007F0006D6D2920463A537065656420286D6D2F14
:100800006D29205A3A205A4C69667420286D6D294A
:100810000A25532020204D3230372053252E3266B2
:100820002046252E3266205A252E32660A2553523E
:1008300065636F7665723A20533D45787472612026
:100840006C656E67746820286D6D2920463A537078
:1008500065656420286D6D2F6D290A2553202020A1
:100860004D3230382053252E32662046252E3266F2
:100870000A25534175746F2D526574726163743A21
:1008800020533D3020746F2064697361626C652C65
:10089000203120746F20696E7465727072657420E7
:1008A000657874727564652D6F6E6C79206D6F76E6
:1008B0006573206173207265747261637473206F55
:1008C00072207265636F7665726965730A255320BD
:1008D00020204D323039205325640A0025535049D9
:1008E0004420686561746265642073657474696E20
:1008F00067733A0A25532020204D33303420502589
:100900002E32662049252E32662044252E32660A74
:100910000025535049442073657474696E67733AB7
:100920000A25532020204D3330312050252E3266A9
:100930002049252E32662044252E32660A00255392
:1009400053746570732070657220756E69743A0A0D
:10095000255320204D39322058252E326620592526
:100960002E3266205A252E32662045252E32660A02
:1009700025534D6178696D756D206665656472619A
:10098000746573202D206E6F726D616C20286D6D03
:100990002F73293A0A255320204D32303320582511
:1009A0002E32662059252E3266205A252E32662098
:1009B00045252E32660A25534D6178696D756D2087
:1009C000666565647261746573202D20737465615A
:1009D0006C746820286D6D2F73293A0A25532020E6
:1009E0004D3230332058252E32662059252E32665E
:1009F000205A252E32662045252E32660A25534D73
:100A00006178696D756D20616363656C6572617491
:100A1000696F6E202D206E6F726D616C20286D6D78
:100A20002F7332293A0A255320204D323031205875
:100A3000256C752059256C75205A256C7520452527
:100A40006C750A25534D6178696D756D206163631E
:100A5000656C65726174696F6E202D2073746561B9
:100A60006C746820286D6D2F7332293A0A25532043
:100A7000204D3230312058256C752059256C752059
:100A80005A256C752045256C750A255341636365AD
:100A90006C65726174696F6E3A20533D6163636582
:100AA0006C65726174696F6E2C20543D726574724E
:100AB00061637420616363656C65726174696F6EF4
:100AC0000A255320204D3230342053252E32662003
:100AD00054252E32660A2553416476616E6365643F
:100AE000207661726961626C65733A20533D4D698D
:100AF0006E20666565647261746520286D6D2F7364
:100B0000292C20543D4D696E2074726176656C20ED
:100B1000666565647261746520286D6D2F73292C7C
:100B200020423D6D696E696D756D207365676D65F9
:100B30006E742074696D6520286D73292C20583DD2
:100B40006D6178696D756D205859206A65726B20EA
:100B5000286D6D2F73292C20205A3D6D6178696DA9
:100B6000756D205A206A65726B20286D6D2F732970
:100B70002C2020453D6D6178696D756D2045206A9A
:100B800065726B20286D6D2F73290A255320204D27
:100B90003230352053252E32662054252E326620E1
:100BA00042252E32662058252E32662059252E32B7
:100BB00066205A252E32662045252E32660A255398
:100BC000486F6D65206F666673657420286D6D29AA
:100BD0003A0A255320204D3230362058252E3266D1
:100BE0002059252E3266205A252E32660A004625C7
:100BF000642025640A004D4D55203C3D20274625A4
:100C000064202564270A00504944204175746F749C
:100C1000756E652066696E6973686564212050751C
:100C20007420746865206C617374204B702C204BA9
:100C30006920616E64204B6420636F6E7374616E13
:100C400074732066726F6D2061626F766520696EC5
:100C5000746F20436F6E66696775726174696F6E39
:100C60002E6800504944204175746F74756E65207C
:100C70006661696C6564212074696D656F757400C7
:100C800020403A00543A00423A005049442041750D
:100C9000746F74756E65206661696C65642120549B
:100CA000656D706572617475726520746F6F206810
:100CB00069676800204B643A2000204B693A2000A5
:100CC000204B703A200020436C617373696320509D
:100CD000494420002054753A2000204B753A2000EA
:100CE000206D61783A2000206D696E3A2000206402
:100CF0003A200020626961733A200020453A0020C2
:100D00005A3A0020593A0020453A00205A3A002029
:100D1000593A00583A00005A30005A310059300010
:100D2000593100583000583100456E642073746F9B
:100D300070732064696167002E0044656C65746996
:100D40006F6E206661696C65642C2046696C653A3B
:100D5000200046696C652064656C657465643A00C2
:100D60004E6F74205344207072696E74696E670010
:100D70005072696E7420736176656400534420700C
:100D800072696E7420706175736564000A002F00CB
:100D90000A002F2F20616374696F6E3A63616E637E
:100DA000656C0043524153485F43414E43454C00FC
:100DB00043524153485F5245434F564552004352B8
:100DC0004153485F5245434F56455200222832292D
:100DD000005400496E76616C6964205420636F642E
:100DE000652E00556E6B6E6F776E204D20636F64BD
:100DF000653A202573200A006E6F2076616C696465
:100E000020636F6D6D616E64002C20002C20002C1F
:100E100020006E2F61002C20002C20002C20006E62
:100E20002F61002F00503A005761697420666F727D
:100E30002050494E44412074617267657420746586
:100E40006D70657261747572653A004C414E472051
:100E500053454C20464F5243454400222831290037
:100E600030303030303030302D303030302D303088
:100E700030302D303030302D303030303030303078
:100E8000303030300020555549443A00310020457B
:100E9000585452554445525F434F554E543A0050B2
:100EA00072757361206933204D4B3300204D4143EF
:100EB00048494E455F545950453A00312E30002084
:100EC0006261736564206F6E204D61726C696E2083
:100ED0004649524D574152455F55524C3A687474D9
:100EE00070733A2F2F6769746875622E636F6D2F68
:100EF000707275736133642F50727573612D46691A
:100F0000726D776172652050524F544F434F4C5F62
:100F100056455253494F4E3A004649524D57415259
:100F2000455F4E414D453A50727573612D46697269
:100F30006D7761726520004D3131332053002042BE
:100F40003A0020453A00543A0020413A0020503AF5
:100F5000002042403A0020403A00202F003A002072
:100F60005400202F0020423A00202F006F6B2054A5
:100F70003A002569206D696E2C2025692073656310
:100F800000496E76616C6964204D20636F64653A38
:100F9000202573200A00556E6B6E6F776E204720F8
:100FA000636F64653A202573200A004D65736820DD
:100FB000626564206C6576656C696E67206E6F741F
:100FC000206163746976652E000A002020000A4DB6
:100FD0006561737572656420706F696E74733A0031
:100FE0000A5A20736561726368206865696768746E
:100FF0003A20002C004E756D20582C593A200020C4
:101000006D6963726F6E730045786365737369769B
:101010006520626564206C6576656C696E67206327
:101020006F7272656374696F6E3A200047323820C0
:1010300057300050494E44412070726F6265206302
:10104000616C6962726174696F6E2073746172742D
:1010500000473238205730004D3234005345545F3A
:1010600043484F505F005345545F535445505F0011
:101070005345545F574156455F00544D435F00430D
:10108000524153485F005072657373206B6E6F62FC
:1010900020746F2070726568656174206E6F7A7A53
:1010A0006C6520616E6420636F6E74696E75652E69
:1010B00000506C656173652070726573732074688D
:1010C00065206B6E6F6220746F20756E6C6F61644B
:1010D0002066696C616D656E740052656D6F766532
:1010E000206F6C642066696C616D656E7420616E42
:1010F0006420707265737320746865206B6E6F6214
:1011000020746F207374617274206C6F6164696EF7
:1011100067206E65772066696C616D656E742E0060
:10112000616E6420707265737320746865206B6EE5
:101130006F6200496E736572742066696C616D65DB
:101140006E7400436F6C6F72206E6F7420636F72E9
:10115000726563740046696C616D656E74206E6FB4
:1011600074206C6F61646564004368616E676564D8
:1011700020636F72726563746C793F004C6F6164B9
:10118000696E6720636F6C6F72004368616E67659C
:1011900020737563636573732100506C65617365BB
:1011A000206F70656E2069646C657220616E6420CA
:1011B00072656D6F76652066696C616D656E742011
:1011C0006D616E75616C6C792E0057617320666974
:1011D0006C616D656E7420756E6C6F6164207375E3
:1011E000636365737366756C3F00506C656173650E
:1011F00020757067726164652E004E6577206669A0
:10120000726D776172652076657273696F6E2061A9
:101210007661696C61626C653A0057616974696EE8
:101220006720666F722050494E44412070726F6291
:101230006520636F6F6C696E67004372617368202D
:1012400064657465637465642E20526573756D659D
:10125000207072696E743F00437261736820646528
:101260007465637465642E00457874727564657284
:101270000043686F6F73652065787472756465727A
:101280003A0043686F6F73652066696C616D656EC7
:10129000743A004E6F206D6F76652E005761697449
:1012A00020666F7220757365722E2E2E00536F6D3F
:1012B000652070726F626C656D20656E636F756E10
:1012C00074657265642C205A2D6C6576656C696E48
:1012D0006720656E666F72636564202E2E2E005344
:1012E0007461626C6520616D6269656E74207465FD
:1012F0006D70657261747572652032312D323643BE
:10130000206973206E656564656420612072696779
:101310006964207374616E642069732072657175ED
:10132000697265642E00506C656173652072756E1C
:101330002058595A2063616C6962726174696F6EDA
:101340002066697273742E0073746172740A00618E
:1013500064635F696E69740A001B5B324A1B5B3110
:101360003B31484F726967696E616C2050727573CA
:10137000612069331B5B323B3348507275736120C7
:10138000526573656172636800466163746F727958
:10139000205245534554004A616E20323920323084
:1013A000313900436F6D70696C65643A2000286EB6
:1013B0006F6E652C2064656661756C7420636F6E5A
:1013C00066696729004A616E20323920323031392E
:1013D0002031363A31333A32370020332E352E3130
:1013E0002D323630300A002055706C6F61642069F0
:1013F0006E2070726F677265737300205A3A002016
:10140000593A0020583A0043524153485F444554EA
:10141000454354454458590043524153485F44455D
:10142000544543544544590043524153485F444551
:1014300054454354454458004D3239005072757339
:1014400061206933204D4B332072656164792E0031
:10145000426C61636B6F7574206F63637572726544
:10146000642E205265636F766572207072696E74A7
:101470003F0053656C66746573742077696C6C20EB
:1014800062652072756E20746F2063616C69627290
:101490006174652061636375726174652073656E44
:1014A000736F726C657373207265686F6D696E67B8
:1014B0002E005468657265206973207374696C6CC2
:1014C0002061206E65656420746F206D616B6520FE
:1014D0005A2063616C6962726174696F6E2E20506C
:1014E0006C6561736520666F6C6C6F7720746865DE
:1014F000206D616E75616C2C20636861707465721B
:101500002046697273742073746570732C20736540
:101510006374696F6E2043616C6962726174696F94
:101520006E20666C6F772E005072696E7465722043
:10153000686173206E6F74206265656E2063616CF4
:1015400069627261746564207965742E20506C65DF
:1015500061736520666F6C6C6F7720746865206DB1
:10156000616E75616C2C20636861707465722046D1
:10157000697273742073746570732C20736563745F
:10158000696F6E2043616C6962726174696F6E206D
:10159000666C6F772E004F6C642073657474696E8F
:1015A000677320666F756E642E2044656661756C86
:1015B00074205049442C2045737465707320657401
:1015C000632E2077696C6C206265207365742E0031
:1015D0005761726E696E673A20626F74682070722C
:1015E000696E746572207479706520616E64206D17
:1015F0006F74686572626F617264207479706520BF
:101600006368616E6765642E005761726E696E670C
:101610003A207072696E7465722074797065206307
:1016200068616E6765642E005761726E696E673A15
:10163000206D6F74686572626F6172642074797076
:1016400065206368616E6765642E00457874657215
:101650006E616C2053504920666C6173682057326C
:1016600035583230434C206E6F7420726573706F42
:101670006E64696E672E00437261736844657465B9
:1016800063742044495341424C45440043726173A2
:101690006844657465637420454E41424C4544215D
:1016A000002020506C616E6E6572427566666572D0
:1016B00042797465733A20002046726565204D6555
:1016C0006D6F72793A2000207C20417574686F72CA
:1016D0003A2000204C617374205570646174656415
:1016E0003A200020536F66747761726520526573EB
:1016F000657400205761746368646F672052657376
:101700006574002042726F776E206F757420526589
:10171000736574002045787465726E616C20526543
:1017200073657400506F7765725570006572726FE3
:10173000722077726974696E6720746F2066696CB5
:101740006500656E6473746F7073206869743A2005
:1017500000446F6E6520736176696E672066696C00
:10176000652E006F6B0058595A2063616C69627274
:101770006174696F6E20616C6C2072696768742E89
:1017800020536B65772077696C6C20626520636FEE
:1017900072726563746564206175746F6D617469DC
:1017A00063616C6C792E0058595A2063616C6962D0
:1017B000726174696F6E20616C6C20726967687405
:1017C0002E20582F5920617865732061726520732F
:1017D0006C696768746C7920736B657765642E201B
:1017E000476F6F64206A6F62210058595A20636105
:1017F0006C6962726174696F6E206F6B2E20582F56
:10180000592061786573206172652070657270651A
:101810006E646963756C61722E20436F6E677261CE
:1018200074756C6174696F6E73210058595A206326
:10183000616C6962726174696F6E206661696C6562
:10184000642E2052696768742066726F6E7420631C
:10185000616C6962726174696F6E20706F696E7419
:10186000206E6F7420726561636861626C652E0022
:1018700058595A2063616C6962726174696F6E2095
:101880006661696C65642E2046726F6E74206361B8
:101890006C6962726174696F6E20706F696E7473C7
:1018A000206E6F7420726561636861626C652E00E2
:1018B00058595A2063616C6962726174696F6E2055
:1018C0006661696C65642E20506C65617365206388
:1018D0006F6E73756C7420746865206D616E7561D0
:1018E0006C2E0058595A2063616C69627261746988
:1018F0006F6E20636F6D70726F6D697365642E20FB
:1019000052696768742066726F6E742063616C69D7
:1019100062726174696F6E20706F696E74206E6F91
:101920007420726561636861626C652E0058595A53
:101930002063616C6962726174696F6E20636F6DA0
:1019400070726F6D697365642E2046726F6E7420BD
:1019500063616C6962726174696F6E20706F696E29
:101960007473206E6F7420726561636861626C6568
:101970002E0058595A2063616C6962726174696FF4
:101980006E206661696C65642E2042656420636127
:101990006C6962726174696F6E20706F696E742019
:1019A000776173206E6F7420666F756E642E0050C1
:1019B0006C6561736520706C616365207374656527
:1019C0006C207368656574206F6E20686561746251
:1019D00065642E0044697374616E6365206265748A
:1019E0007765656E20746970206F66207468652065
:1019F0006E6F7A7A6C6520616E642074686520620F
:101A00006564207375726661636520686173206E1A
:101A10006F74206265656E20736574207965742E1D
:101A200020506C6561736520666F6C6C6F772074F5
:101A30006865206D616E75616C2C206368617074DF
:101A400065722046697273742073746570732C20FC
:101A500073656374696F6E204669727374206C617C
:101A60007965722063616C6962726174696F6E2E50
:101A700000506C6163652061207368656574206F38
:101A80006620706170657220756E6465722074687E
:101A900065206E6F7A7A6C6520647572696E672056
:101AA0007468652063616C6962726174696F6E202D
:101AB0006F66206669727374203420706F696E746B
:101AC000732E20496620746865206E6F7A7A6C6583
:101AD0002063617463686573207468652070617049
:101AE00065722C20706F776572206F66662074684F
:101AF00065207072696E74657220696D6D656469C8
:101B00006174656C792E00506C6561736520726537
:101B10006D6F766520737465656C20736865657498
:101B20002066726F6D20686561746265642E00497D
:101B30007320737465656C207368656574206F6EBF
:101B400020686561746265643F00206F6620340020
:101B5000536561726368696E6720626564206361C2
:101B60006C6962726174696F6E20706F696E740067
:101B7000206F662039004D6561737572696E67204C
:101B80007265666572656E6365206865696768740D
:101B9000206F662063616C6962726174696F6E2088
:101BA000706F696E7400506C6561736520636C655D
:101BB000616E20746865206E6F7A7A6C6520666F3E
:101BC000722063616C6962726174696F6E2E20436A
:101BD0006C69636B207768656E20646F6E652E009C
:101BE0004175746F20686F6D650078797A63616CF8
:101BF0005F6D656173737572655F656E7465720A9A
:101C00000078797A63616C5F73706972616C3820F7
:101C100063783D25642063793D2564207A303D2535
:101C20006420647A3D2564207261646975733D2582
:101C3000642061643D25640A0078797A63616C5F91
:101C40007365617263685A206E6F207369676E6195
:101C50006C0A20783D256C6420793D256C64207ADF
:101C60003D256C640A00204F4E2D5349474E414C90
:101C700020617420783D256420793D2564207A3DDB
:101C800025642061643D25640A0078797A63616C7B
:101C90005F7365617263685A20783D256C642079B2
:101CA0003D256C64207A3D256C640A000A002530CD
:101CB00032780078797A63616C5F7363616E5F700C
:101CC0006978656C735F33327833322063783D25F1
:101CD000642063793D2564206D696E5F7A3D2564DB
:101CE000206D61785F7A3D25640A002025326420EA
:101CF00025640A000A002530327800206D696E3DA7
:101D00002564206D61783D2564206469663D256405
:101D10000A006D61785F633D253264206D61785FF4
:101D20006C3D25640A006D61785F633D2564206D1C
:101D300061785F723D2564206D61785F6D617463C9
:101D4000683D25640A0020783D256420793D25649E
:101D5000207A3D25640A00207061747465726E20DB
:101D6000666F756E642061742025642025640A0006
:101D70000000F000F801FC03FE07FE07FE07FE0767
:101D8000FC03F801F000000073697A656F6628743F
:101D90006F74616C293D25640A0073697A656F660A
:101DA00028626C6F636B5F627566666572293D259C
:101DB000640A0078797A63616C5F6D65617373752D
:101DC00072655F6C656176650A00706F696E743D5F
:101DD000256420783D256420793D2564207A3D25C1
:101DE000640A0058025802584D584DB004F055F09E
:101DF00055B00478797A63616C5F66696E645F627E
:101E000065645F696E64756374696F6E5F73656E38
:101E1000736F725F706F696E745F787920783D259B
:101E20006C6420793D256C64207A3D256C640A0041
:101E3000203C20005741524E494E473A2046726F8F
:101E40006E7420706F696E74206E6F74207265619D
:101E5000636861626C652E205920636F6F726469DC
:101E60006E6174653A0000000040410000C040000F
:101E7000005C430000C04000005C4300004643009B
:101E800000404100004643497465726174696F6E99
:101E90003A200043616C6962726174696F6E2066FA
:101EA00061696C65642120436865636B20746865B3
:101EB000206178657320616E642072756E206167A1
:101EC00061696E2E0050415439313235206E6F7485
:101ED00020726573706F6E64696E672028256429AF
:101EE000210A00000E1315110E0000000412091241
:101EF000040000001C1F11111F0000000619180328
:101F0000130C00040E1F041C000000040A0A0A0A35
:101F100011110E001F1511151F0000000103161CE2
:101F20000800000000110A04110A040C12120C002F
:101F30000000002563252D313853256300256325D6
:101F40002E3135533A2573253364002563252E3110
:101F500032533A25732500205B6F66665D002220B0
:101F60006661696C65643A204275666665722066D2
:101F7000756C6C21002200256920686F75727320D2
:101F80002569206D696E757465730054494D454F20
:101F900055543A004D3131300046756C6C20525822
:101FA00020427566666572006673656E736F725F58
:101FB00073746F705F616E645F736176655F70727A
:101FC000696E740A006673656E736F725F72657313
:101FD000746F72655F7072696E745F616E645F6367
:101FE0006F6E74696E75650A0044495341424C45F1
:101FF000440A00454E41424C4544004653656E73C9
:102000006F722025530A00504154393132355F69CF
:102010006E69743A256868750A0050415439313246
:10202000355F696E69743A256868750A00656E7176
:102030007565696E67202200446F6E652070726955
:102040006E74696E672066696C65005072696E74A3
:1020500065722073746F7070656420647565207498
:102060006F206572726F72732E20466978207468D3
:1020700065206572726F7220616E642075736520D1
:102080004D39393920746F20726573746172742E02
:10209000202854656D70657261747572652069736E
:1020A0002072657365742E205365742069742061F5
:1020B000667465722072657374617274696E6729E3
:1020C000004E6F204C696E65204E756D6265722002
:1020D0007769746820636865636B73756D2C204C39
:1020E000617374204C696E653A20004E6F2043681E
:1020F00065636B73756D2077697468206C696E65B4
:10210000206E756D6265722C204C617374204C6971
:102110006E653A2000636865636B73756D206D6949
:10212000736D617463682C204C617374204C696E0C
:10213000653A20004C696E65204E756D62657220AF
:102140006973206E6F74204C617374204C696E65E6
:10215000204E756D6265722B312C204C617374209A
:102160004C696E653A20006673656E736F725F61CD
:1021700075746F6C6F61645F636865636B5F7374C4
:10218000617274202D206175746F6C6F61642045DD
:102190004E41424C45440A006673656E736F725F30
:1021A0006175746F6C6F61645F636865636B5F73A7
:1021B000746F70202D206175746F6C6F61642044A2
:1021C000495341424C45440A0053544F50504544F2
:1021D0002E2000457872656D65207370616E206FEA
:1021E0006620746865205A2076616C7565732100DD
:1021F0006F6B0A0073746172740A004D4D55322082
:102200006669726D776172652076657273696F6E4B
:1022100020696E76616C69642E20526571756972F1
:1022200065642076657273696F6E3A206275696CB9
:1022300064206E756D626572202564206F7220685F
:1022400069676865722E004D363030004D3630308B
:10225000204155544F004653454E534F525F52450F
:10226000434F56455200256868750050300A0052A9
:10227000300A004525640A0055300A0043300A0040
:102280004C25640A005425640A004D4D55202D202C
:10229000454E41424C454400256868750050300A5F
:1022A0000050300A004D4D552076657273696F6E8F
:1022B0002076616C69640025750053320A0025752B
:1022C000004D4D55206E6F7420726573706F6E6493
:1022D000696E67202D2044495341424C45440053C8
:1022E000310A004D4D55207374617274732072650C
:1022F00073706F6E64696E670A004D4D55206E6F86
:102300007420726573706F6E64696E670A000000F6
:10231000803F555585410000803F0000C8410000C6
:102320000040555505420000C03F000048420000F3
:10233000204055558542000070C1ABAAA64200005E
:1023400060C10000A0410000C0C0000020410000AA
:102350002041ABAA3A41000020C15555D5400000AC
:1023600048C2555505424D373031204530004D3774
:102370003031204531004D373031204532004D3766
:102380003031204533004D373031204534004D3752
:102390003031204534004D373031204533004D3742
:1023A0003031204532004D373031204531004D3736
:1023B00030312045300046696C616D656E74206E69
:1023C00072206F7574206F662072616E67652100E0
:1023D000426564206C6576656C696E67206661692C
:1023E0006C65642E2053656E736F72206469646E31
:1023F0007420747269676765722E20446562726921
:1024000073206F6E206E6F7A7A6C653F205761691A
:1024100074696E6720666F722072657365742E0032
:10242000506C6561736520757064617465206669C0
:10243000726D7761726520696E20796F7572204DBB
:102440004D55322E2057616974696E6720666F7230
:102450002072657365742E004D4D55204F4B2E2014
:10246000526573756D696E672E2E2E004D4D552089
:102470004F4B2E20526573756D696E6720706F73B8
:102480006974696F6E2E2E2E004D4D55204F4B2EC8
:1024900020526573756D696E672074656D70657225
:1024A00061747572652E2E2E0046697820746865F9
:1024B00020697373756520616E64207468656E2091
:1024C000707265737320627574746F6E206F6E2006
:1024D0004D4D5520756E69742E00507265737320D2
:1024E000746865206B6E6F6220746F2072657375FF
:1024F0006D65206E6F7A7A6C652074656D7065729B
:1025000061747572652E004D4D55206E656564735E
:10251000207573657220617474656E74696F6E2EB8
:1025200000506C656173652072656D6F766520661D
:10253000696C616D656E7420616E64207468656E8F
:1025400020707265737320746865206B6E6F622EE5
:1025500000456A656374696E672066696C616D65C4
:102560006E740025632533642F256425630024F4ED
:10257000D43050C38E20C2A24017828B7011127AC1
:10258000910D816CD90AA861E108C75866076151AD
:1025900043061E4B5D05C145A7041A411104093DC0
:1025A0009803713931034036DB0265339102D43030
:1025B0005402802E1D02632CEE01752AC501B0283D
:1025C000A001102781018F2564012B244B01E022FB
:1025D0003401AC211F018D200D01801FFC00841EE1
:1025E000ED00971DDF00B81CD200E61BC600201BC3
:1025F000BC00641AB200B219A8000A19A0006A1837
:102600009900D117910040178B00B5168400311640
:102610007E00B31579003A157300C7146F00581483
:102620006A00EE1366008813630025135E00C7126C
:102630005B006C12570015125400C111510070114B
:102640004F0021114B00D61049008D104700461055
:10265000440002104200C00F4000800F3E00420FB5
:102660003C00060F3B00CB0E3800930E37005C0E8B
:102670003500270E3400F30D3200C10D3100900DEE
:102680003000600D2E00320D2D00050D2C00D90CF0
:102690002B00AE0C2900850C29005C0C2700350CA2
:1026A00027000E0C2600E80B2400C40B2400A00B0E
:1026B00023007D0B23005A0B2100390B2100180B3E
:1026C0002000F80A1F00D90A1E00BB0A1E009D0A3E
:1026D0001D00800A1D00630A1C00470A1B002C0A0B
:1026E0001B00110A1A00F7091A00DD091900C409B4
:1026F0001900AB091900920917007B09180063093A
:1027000017004C09160036091600200916000A09A0
:102710001500F5081500E0081400CC081400B808EE
:102720001400A4081400900813007D0812006B0820
:10273000130058081200460812003408110023083C
:1027400011001208110001081100F0071000E00745
:102750001000D0071000C0071000B0070F00A1073D
:10276000100091070E0083070F0074070F00650724
:102770000E0057070E0049070E003B070D002E07FD
:102780000E0020070D0013070D0006070D00F906C7
:102790000C00ED060D00E0060C00D4060C00C80687
:1027A0000C00BC060C00B0060C00A4060B00990639
:1027B0000C008D060B0082060B0077060B006C06E2
:1027C0000B0061060A0057060B004C060A00420681
:1027D0000A0038060A002E060A0024060A001A0615
:1027E0000A001006090007060A00FD050900F405A5
:1027F0000900EB050900E2050900D9050900D0052B
:102800000900C7050900BE050900B5050800AD05AA
:102810000800A50509009C050800940508008C0522
:102820000800840508007C050800740508006C0594
:102830000700650508005D050700560508004E0500
:102840000700470507004005080038050700310567
:1028500007002A050700230507001C0506001605CA
:1028600007000F0507000805060002050700FB0426
:102870000600F5040700EE040600E8040600E20482
:102880000700DB040600D5040600CF040600C904D7
:102890000600C3040600BD040600B7040600B10428
:1028A0000500AC040600A6040600A00405009B0475
:1028B000060095040500900406008A0405008504BE
:1028C0000500800406007A04050075040500700404
:1028D00005006B04050066040500610405005C0446
:1028E000050057040500520405004D040500480486
:1028F0000500430405003E0404003A0405003504C5
:102900000500300404002C040500270404002304FF
:1029100005001E0404001A04040016040500110436
:1029200004000D040400090405000404040000046C
:102930000400FC030400F8030400F4030400F003A3
:102940000400EC030400E8030400E4030400E003D3
:102950000400DC030400D8030400D4030400D00303
:102960000400CC030400C8030300C503030024F4DF
:1029700004D9201BC40C5C0E9804C4095F026507CF
:102980007101F405F900FB04B30048048700C1039A
:1029900069005803550003034500BE023A00840253
:1029A000310053022A002902250004022000E4011C
:1029B0001C00C8011900AF01170098011400840120
:1029C0001300710110006101100051010E0043015C
:1029D0000D0036010B002B010B0020010B0015012F
:1029E00009000C01090003010800FB000800F300C6
:1029F0000800EB000700E4000600DE000600D80037
:102A00000600D2000600CC000500C7000500C20089
:102A10000500BD000400B9000400B5000400B100C9
:102A20000400AD000400A9000400A5000300A200FA
:102A300003009F0004009B00030098000300950022
:102A4000020093000300900003008D0002008B0041
:102A50000300880002008600020084000300810059
:102A600002007F0002007D0002007B00020079006E
:102A7000020077000100760002007400020072007C
:102A80000100710002006F0002006D0001006C0087
:102A900002006A0001006900020067000100660090
:102AA0000100650001006400020062000100610095
:102AB0000100600001005F0002005D0001005C0099
:102AC00001005B0001005A0001005900010058009C
:102AD000010057000100560001005500010054009C
:102AE000010053000000530001005200010051009A
:102AF0000100500001004F0001004E0000004E0098
:102B000001004D0001004C0001004B0000004B0093
:102B100001004A000100490001004800000048008F
:102B2000010047000100460000004600010045008A
:102B30000000450001004400010043000000430084
:102B4000010042000000420001004100000041007D
:102B50000100400001003F0000003F0001003E0076
:102B600000003E0001003D0000003D0001003C006F
:102B700000003C0000003C0001003B0000003B0066
:102B800001003A0000003A0001003900000039005D
:102B90000100380000003800000038000100370054
:102BA000000037000100360000003600000036004B
:102BB0000100350000003500000035000100340040
:102BC0000000340000003400010033000000330036
:102BD000000033000100320000003200000032002B
:102BE0000100310000003100000031000100300020
:102BF000000030000000300001002F0000002F0016
:102C000000002F0000002F0001002E0000002E0009
:102C100000002E0001002D0000002D0000002D00FE
:102C200000002D0001002C0000002C0000002C00F2
:102C300000002C0001002B0000002B0000002B00E6
:102C400000002B0001002A0000002A0000002A00DA
:102C500000002A00010029000000290000002900CE
:102C600000002900000029000100280000002800C1
:102C700000002800000028000000280001002700B4
:102C800000002700000027000000270000002700A8
:102C9000010026000000260000002600000026009B
:102CA000000026000100250000002500000025008E
:102CB0000000250000002500000025000100240080
:102CC0000000240000002400000024000000240074
:102CD0000100230000002300000023000000230067
:102CE0000000230000002300000023000100220058
:102CF000000022000000220000002200000022004C
:102D0000000022000100210000002100000021003D
:102D1000000021000000210000002100000021002F
:102D20000100200000002000000020000000200022
:102D30000000200000002000000020000000200013
:102D400001001F0000001F0000001F0000001F0006
:102D500000001F0000001F0000001F0001001E00F7
:102D600000001E0000001E0000001E0000002042A7
:102D70003A0020453A00543A00494E5434007265F6
:102D8000636F7665725F6D616368696E655F7374AA
:102D90006174655F61667465725F706F7765725F9D
:102DA00070616E69632C20696E697469616C2000C2
:102DB0007265636F7665725F6D616368696E655F8A
:102DC00073746174655F61667465725F706F776557
:102DD000725F70616E69632C20696E697469616CE1
:102DE0002000473932204500505255534120757616
:102DF0006C6F004734205330004D32362053256C21
:102E000075004D3130362053004D383200473120A7
:102E10004625640047312045322A64656661756C39
:102E2000745F72657472616374696F6E20463438C2
:102E300030004731205A00204632303030002059CF
:102E40000047312058004D383300506F7369746962
:102E50006F6E20726561642066726F6D20656570AB
:102E6000726F6D3A004D3233202573002E67636F09
:102E70000046656564726174653A00473120452DEE
:102E800064656661756C745F7265747261637469A0
:102E90006F6E2046343830004731204535204631AA
:102EA0003230004D3833004D313930205325640025
:102EB0004D3130392053256400473238205820598D
:102EC000004731205A323520463830300062757361
:102ED000793A2070617573656420666F7220696E3F
:102EE00070757400627573793A20706175736564EA
:102EF00020666F72207573657200627573793A206F
:102F000070726F63657373696E67002046004731A6
:102F1000205A0020460047312045004D3833006FCD
:102F20006B0A0055564C4F202D20656E6420256499
:102F30000A007374707325640A00776F726C6420E2
:102F4000636F6F7264696E617465733A2028252E11
:102F500033662C20252E33662C20252E3366290A35
:102F600000706879736963616C20636F6F72646964
:102F70006E617465733A2028252E33662C20252E29
:102F800033662C20252E3366290A0043757272653C
:102F90006E7420706F73205A5F415849533A252E42
:102FA00033660A43757272656E7420706F732045C4
:102FB0005F415849533A252E33660A0041667465CD
:102FC000722077616974696E6720666F722074651C
:102FD0006D703A0A43757272656E7420706F73205B
:102FE000585F415849533A252E33660A4375727229
:102FF000656E7420706F7320595F415849533A25AC
:103000002E33660A005265636F766572696E6720BB
:103010007072696E742020202000566F6C74616796
:1030200065730054656D70657261747572657300C7
:1030300042656C74207374617475730045787472A2
:103040007564657220696E666F0058595A20636115
:103050006C2E2064657461696C7300756E6B6E6FA5
:10306000776E004D4D553220636F6E6E65637465EB
:103070006400446174653A00686F77746F2E7072F3
:1030800075736133642E636F6D00666F72756D2E9C
:10309000707275736133642E636F6D007072757337
:1030A0006133642E636F6D0046696C616D656E748B
:1030B00020657874727564696E672026207769745C
:1030C0006820636F727265637420636F6C6F723F08
:1030D000005072656865617420746865206E6F7A4F
:1030E0007A6C6521004552524F523A004175746F17
:1030F0006C6F6164696E672066696C616D656E7482
:10310000206973206163746976652C206A75737415
:1031100020707265737320746865206B6E6F622017
:10312000616E6420696E736572742066696C616D8E
:10313000656E742E2E2E00546F74616C207072694F
:103140006E742074696D6500546F74616C206669DB
:103150006C616D656E74005072696E742074696D77
:10316000650046696C616D656E74207573656400F9
:103170005269676874004C6566740059206469730D
:1031800074616E63652066726F6D206D696E0053A9
:10319000657665726520736B657700536C69676847
:1031A0007420736B6577004D65617375726564207B
:1031B000736B6577005B303B305D20706F696E74B8
:1031C000206F66667365740041646A757374696E16
:1031D00067205A00526573657400526561722073EE
:1031E000696465205B756D5D0046726F6E74207357
:1031F0006964655B756D5D00526967687420736909
:1032000064655B756D5D004C65667420736964650B
:10321000205B756D5D005365742074656D7065721B
:1032200061747572653A00466C6173684169722019
:10323000495020416464723A004D4D55322020209F
:10324000202020204E2F410025642E25642E256449
:103250002D2564002046573A004A616E20323920FD
:103260003230313900453344763666756C6C004532
:10327000494E53795F31306100315F37356D6D5F95
:103280004D4B33002D2D2D2D2D2D2D2D2D2D2D2D57
:103290000020332E352E312D323630300046697203
:1032A0006D776172653A0025642E25642E25642EA3
:1032B0002564004D373032004D3730310045787489
:1032C0007275646572006D6D0000590058005800F9
:1032D00059005A002563252E3132533A2573252B88
:1032E00030362E3366001B5B324A2553203A1B5B77
:1032F000313B394825382E3266206D0A2553203A55
:103300000A25376C6464203A253268686468203A7C
:10331000253032686864206D001B5B324A25533AC1
:103320001B5B313B364825382E32666D200A25530B
:10333000203A1B5B333B3848253264682025303205
:10334000646D2025303264730025362E32666D6D33
:10335000004E2F41001B5B303B304825533A0A2575
:10336000530A25533A0A25533A001B5B303B31354B
:10337000484E2F41001B5B303B31354825342E32FF
:103380006601001B5B303B304825533A0A25530A3F
:1033900025533A202025352E3266010A25533A203E
:1033A0002025352E3266010052756E6E696E6720DB
:1033B00057697A6172642077696C6C2064656C650A
:1033C00074652063757272656E742063616C6962E6
:1033D000726174696F6E20726573756C74732061AD
:1033E0006E642073746172742066726F6D207468ED
:1033F0006520626567696E6E696E672E20436F6E29
:1034000074696E75653F0050726568656174696EB8
:1034100067206E6F7A7A6C652E20506C65617365DB
:1034200020776169742E00456A65637400556E6C7F
:103430006F61640055736520756E6C6F61642074F4
:103440006F2072656D6F76652066696C616D656E63
:103450007420312069662069742070726F747275EF
:10346000646573206F757473696465206F6620747A
:1034700068652072656172204D4D552074756265D6
:103480002E2055736520656A65637420696620691E
:10349000742069732068696464656E20696E2074A5
:1034A0007562652E004C6F6164696E672066696C99
:1034B000616D656E7400506C6561736520696E7333
:1034C00065727420504C412066696C616D656E7444
:1034D00020746F20746865206578747275646572F5
:1034E0002C207468656E207072657373206B6E6F2C
:1034F0006220746F206C6F61642069742E00506CC0
:103500006561736520696E7365727420504C41204B
:1035100066696C616D656E7420746F2074686520D7
:1035200066697273742074756265206F66204D4DF4
:10353000552C207468656E207072657373207468F2
:1035400065206B6E6F6220746F206C6F6164206900
:10355000742E00596F752063616E20616C776179FC
:103560007320726573756D65207468652057697A7C
:103570006172642066726F6D2043616C6962726172
:1035800074696F6E202D3E2057697A6172642E0037
:10359000506C6561736520636865636B206F75723D
:1035A0002068616E64626F6F6B20616E6420666973
:1035B00078207468652070726F626C656D2E20547F
:1035C00068656E20726573756D6520746865205737
:1035D000697A617264206279207265626F6F7469C2
:1035E0006E6720746865207072696E7465722E0053
:1035F000416C6C20697320646F6E652E2048617089
:103600007079207072696E74696E672100506C6504
:1036100061736520636C65616E20686561746265C5
:103620006420616E64207468656E207072657373C7
:1036300020746865206B6E6F622E00446F20796F76
:10364000752077616E7420746F2072657065617487
:10365000206C617374207374657020746F207265C0
:1036600061646A7573742064697374616E63652044
:103670006265747765656E206E6F7A7A6C6520611D
:103680006E6420686561746265643F0049207769F3
:103690006C6C20737461727420746F207072696E28
:1036A00074206C696E6520616E6420796F75207777
:1036B000696C6C206772616475616C6C79206C6FE9
:1036C00077657220746865206E6F7A7A6C65206207
:1036D0007920726F746174696E6720746865206BFD
:1036E0006E6F622C20756E74696C20796F75207214
:1036F00065616368206F7074696D616C20686569CD
:103700006768742E20436865636B20746865207059
:103710006963747572657320696E206F75722068B5
:10372000616E64626F6F6B20696E20636861707494
:1037300065722043616C6962726174696F6E2E00FC
:103740004E6F7720492077696C6C2063616C6962E9
:10375000726174652064697374616E63652062656B
:10376000747765656E20746970206F662074686573
:10377000206E6F7A7A6C6520616E64206865617472
:1037800062656420737572666163652E00497320FB
:10379000697420504C412066696C616D656E743FA0
:1037A0000053656C656374206E6F7A7A6C65207067
:1037B0007265686561742074656D70657261747599
:1037C0007265207768696368206D617463686573EA
:1037D00020796F7572206D6174657269616C2E005D
:1037E0004E6F7720492077696C6C20707265686530
:1037F0006174206E6F7A7A6C6520666F7220504C0F
:10380000412E0049732066696C616D656E74206C91
:103810006F616465643F0049732066696C616D6522
:103820006E742031206C6F616465643F004E6F7769
:1038300020492077696C6C2070726568656174201E
:103840006E6F7A7A6C6520666F7220504C412E0044
:10385000492077696C6C2072756E207A2063616CE8
:103860006962726174696F6E206E6F772E004E6FA1
:10387000772072656D6F7665207468652074657356
:1038800074207072696E742066726F6D2073746537
:10389000656C2073686565742E00506C6561736596
:1038A0002072656D6F7665207368697070696E67E8
:1038B0002068656C706572732066697273742E007F
:1038C000492077696C6C2072756E2078797A206354
:1038D000616C6962726174696F6E206E6F772E2001
:1038E00049742077696C6C2074616B65206170701D
:1038F000726F782E203132206D696E732E0046690A
:103900007273742C20492077696C6C2072756E205C
:103910007468652073656C667465737420746F20B9
:10392000636865636B206D6F737420636F6D6D6F7B
:103930006E20617373656D626C792070726F626C5A
:10394000656D732E0048692C204920616D20796FC8
:103950007572204F726967696E616C205072757361
:1039600061206933207072696E7465722E20576F02
:10397000756C6420796F75206C696B65206D6520AE
:10398000746F20677569646520796F75207468723B
:103990006F75676820746865207365747570207032
:1039A000726F636573733F00452D636F7272656359
:1039B00074005A2D636F727265637400592D636FC2
:1039C000727265637400582D636F72726563740060
:1039D00053706F6F6C4A6F696E2020205B4E2F41D1
:1039E0005D0053706F6F6C4A6F696E2020205B6FB3
:1039F00066665D0053706F6F6C4A6F696E202020A1
:103A0000205B6F6E5D00536F756E64202020202058
:103A1000205B6C6F75645D00536F756E64202020B1
:103A20002020205B6D7574655D00536F756E64209A
:103A30002020205B73696C656E745D00536F756E3A
:103A4000642020202020205B6F6E63655D00536F33
:103A5000756E642020202020205B6C6F75645D00F3
:103A6000536F72743A2020202020205B6E6F6E65A9
:103A70005D00536F72743A20205B616C7068616204
:103A800065745D00536F72743A2020202020205B03
:103A900074696D655D005344206361726420205B2E
:103AA0006E6F726D616C5D005344206361726420BF
:103AB0005B666C73684169725D0052506920706F7B
:103AC000727420202020205B6F6E5D0052506920B0
:103AD000706F7274202020205B6F66665D005465F5
:103AE0006D702E2063616C2E2020205B6F6E5D0058
:103AF00054656D702E2063616C2E20205B6F6666AE
:103B00005D004C696E2E20636F7272656374696F1D
:103B10006E0046616E7320636865636B20205B6F87
:103B200066665D0046616E7320636865636B202086
:103B3000205B6F6E5D00462E206175746F6C6F6147
:103B400064205B6F66665D00462E206175746F6C45
:103B50006F616420205B6F6E5D00462E206175747E
:103B60006F6C6F6164205B4E2F415D0046696C2E67
:103B70002073656E736F72205B4E2F415D00446948
:103B80007361626C65207374657070657273004D4B
:103B90006F766520617869730054656D7065726138
:103BA000747572650054656D702E2063616C696276
:103BB000726174696F6E0052657365742058595A4A
:103BC0002063616C6962722E0053686F77207069A0
:103BD0006E646120737461746500504944206361B0
:103BE0006C6962726174696F6E00426564206C6515
:103BF00076656C20636F7272656374004D657368DF
:103C000020426564204C6576656C696E670043618F
:103C10006C696272617465205A0043616C696272FA
:103C20006174652058595A0053656C6674657374E5
:103C3000202020202020202020004669727374203C
:103C40006C617965722063616C2E0057697A6172CC
:103C500064004C6F61642066696C616D656E7420F0
:103C600035004C6F61642066696C616D656E74200F
:103C700034004C6F61642066696C616D656E742000
:103C800033004C6F61642066696C616D656E7420F1
:103C900032004C6F61642066696C616D656E7420E2
:103CA00031004C6F616420616C6C004C6F6164206A
:103CB00066696C616D656E742035004C6F616420BF
:103CC00066696C616D656E742034004C6F616420B0
:103CD00066696C616D656E742033004C6F616420A1
:103CE00066696C616D656E742032004C6F61642092
:103CF00066696C616D656E74203100456A65637438
:103D00002066696C616D656E74203500456A656377
:103D1000742066696C616D656E74203400456A6557
:103D200063742066696C616D656E74203300456A4A
:103D30006563742066696C616D656E742032004540
:103D40006A6563742066696C616D656E742031000C
:103D5000506C656173652070756C6C206F75742094
:103D600066696C616D656E7420696D6D656469610D
:103D700074656C7900556E6C6F6164696E6720665E
:103D8000696C616D656E740057697A617264206553
:103D90006E642073746174653A2025640A00576963
:103DA0007A6172642073746174653A2025640044FA
:103DB000697361626C65206661726D206D6F646508
:103DC000004661726D206E756D626572004D38340B
:103DD000004D343400473238205700473939004409
:103DE000697361626C65206661726D206D6F6465D8
:103DF0003F0043686F6F736520636F6C6F723A00AA
:103E000043757272656E74005573656420647572D3
:103E1000696E67207072696E740050494420636156
:103E20006C2E2066696E6973686564005049442091
:103E300063616C2E202020202020202020202000C4
:103E4000506C656173652077616974004D3131375D
:103E5000204669727374206C617965722063616CAD
:103E60002E005072696E742070617573656400492C
:103E70006E76616C6964205049442063616C2E2029
:103E8000726573756C74732E204E6F742073746F2B
:103E900072656420746F20454550524F4D2E004D81
:103EA000353030004731205A3135204631353030F9
:103EB00000473931004731205835302059313930E9
:103EC00020453020463730303000473930004D37FC
:103ED0003032004D3730322043004D3730322055DC
:103EE000004D373032004D3730322043004731200B
:103EF0005A313520463135303000473931004731AD
:103F0000205835302059313930204530204637305F
:103F10003030004D383300473930004D3834004DD3
:103F2000313034205330004D3834004D373032209A
:103F30004300473120583130205931383020463441
:103F4000303030004731205A313020463133303064
:103F50002E303030004D313430205330004D313070
:103F60003420533000473120452D302E3037353046
:103F7000302046323130302E3030303030004D314C
:103F800030370047312058353020593535204533FA
:103F90002E363237373300473120583230302059EF
:103FA00035352045302E34393338360047312058E6
:103FB000323030205937352045332E3632373733BB
:103FC00000473120583530205937352045302E34C0
:103FD00039333836004731205835302059393520AB
:103FE00045332E36323737330047312058323030A0
:103FF000205939352045302E343933383600473191
:10400000205832303020593131352045332E363268
:10401000373733004731205835302059313135207A
:1040200045302E343933383600473120583530206A
:10403000593133352045332E363237373300473147
:10404000205832303020593133352045302E363625
:10405000313734004731205832303020593135352E
:104060002045322E36323737330047312058313031
:104070003020593135352045320047312058373509
:1040800020593135352045322E3500473120463113
:10409000303830004731205A302E31353020463705
:1040A0003230302E303030004731205835302059F2
:1040B000313535004731204634303030004D323014
:1040C00034205331303030004731205A35204637C4
:1040D0003230302E30303000473120452D312E35F2
:1040E000303030302046323130302E3030303030C9
:1040F000004D3833004739300047323100473932FC
:104100002045302E3000473120583130302E3020BD
:104110004531322E352046313030302E3000473197
:10412000205836302E302045392E30204631303060
:10413000302E300047312058352E302045342E3077
:104140002046313030302E30004731205A302E3268
:10415000302046313030302E300047312058353550
:104160002E30204532352046313430302E30004755
:104170003120592D322E302046313030302E300053
:10418000473120583234302E30204532352E302001
:104190002046323230302E30004739322045302E22
:1041A00030004731205A302E332046313030302E07
:1041B00030004731205835352E302045382E3020FC
:1041C00046323030302E300047312058352E3020E6
:1041D0004533322E302046313830302E30004731D2
:1041E000205835352E30204533322E3020463130A0
:1041F00037332E30004731205A302E3420463130AC
:1042000030302E3000473120592D332E30204631AA
:104210003030302E30004D383300473932204530B1
:104220002E3000473238004D31303920533231358D
:10423000004D31393020533630004D313430205369
:104240003630004D3130342053323135004D31306D
:10425000370020003E003E0020003E003E00546536
:104260006D70657261747572652063616C696272EC
:104270006174696F6E206661696C65642E20436F9E
:104280006E74696E756520776974682070726573E5
:1042900073696E6720746865206B6E6F622E0054C0
:1042A000656D70657261747572652063616C6962B9
:1042B000726174696F6E20646F6E652E20436F6E3D
:1042C00074696E75652077697468207072657373A0
:1042D000696E6720746865206B6E6F622E005A30BD
:1042E00020284C4544206F6E2920005A3120284C4C
:1042F0004544206F66662900502E492E4E2E442ECE
:10430000412E20737461746500473830004D343598
:10431000004D3435205A004737360054656D7065BE
:104320007261747572652063616C6962726174692F
:104330006F6E206661696C65640054656D706572AE
:1043400061747572652063616C6962726174696F12
:104350006E2069732066696E697368656420616E9A
:1043600064206163746976652E2054656D702E201B
:1043700063616C6962726174696F6E2063616E2043
:1043800062652064697361626C656420696E206D8A
:10439000656E752053657474696E67732D3E546540
:1043A0006D702E2063616C2E0045787472756465A3
:1043B00072004D6F7665205A004D6F76652059006A
:1043C0004D6F76652058001B5B324A4372617368FB
:1043D00020646574656374696F6E2063616E1B5B36
:1043E000313B30486265207475726E6564206F6E73
:1043F000206F6E6C7920696E1B5B323B30484E6FCC
:10440000726D616C206D6F6465001B5B324A5741B1
:10441000524E494E473A1B5B313B30484372617301
:104420006820646574656374696F6E1B5B323B3032
:104430004864697361626C656420696E1B5B333B21
:104440003048537465616C7468206D6F6465004119
:1044500075746F6C6F6164696E672066696C616DFD
:10446000656E7420617661696C61626C65206F6E47
:104470006C79207768656E2066696C616D656E7415
:104480002073656E736F72206973207475726E6528
:1044900064206F6E2E2E2E004552524F523A204607
:1044A000696C616D656E742073656E736F722069DF
:1044B00073206E6F7420726573706F6E64696E67BF
:1044C0002C20706C6561736520636865636B206385
:1044D0006F6E6E656374696F6E2E0043616C696206
:1044E0007261746500506C65617365206C6F616406
:1044F00020504C412066696C616D656E7420666960
:104500007273742E00497320504C412066696C61AF
:104510006D656E74206C6F616465643F0043616E0D
:1045200063656C0046696C616D656E740053656C03
:1045300065637420504C412066696C616D656E74D2
:104540003A00526573656E640025533A20256C6409
:104550000A25530A002079645F6D696E3D25752038
:1045600079645F6D61783D25752079645F61766758
:104570003D25752073685F6176673D25750A0020CB
:1045800073745F73756D3D25752079645F73756D08
:104590003D25752065725F73756D3D2575206572CB
:1045A0005F6D61783D256868750A00004B494C4C89
:1045B00045442E20005072696E7465722068616CEB
:1045C0007465642E206B696C6C28292063616C6CA7
:1045D000656421004B494C4C3A2025640A004D315A
:1045E000303420496E76616C696420657874727528
:1045F00064657220004D31303520496E76616C69FA
:104600006420657874727564657220004D313039AC
:1046100020496E76616C6964206578747275646592
:104620007220004D32313820496E76616C69642009
:10463000657874727564657220004D32323120499C
:104640006E76616C69642065787472756465722039
:10465000006673656E736F725F6F715F6D65617316
:10466000737572655F73746F702C20256868752090
:1046700073616D706C65730A006673656E736F723B
:104680005F6F715F6D656173737572655F73746180
:1046900072740A004D363030004653454E534F5227
:1046A0005F5245434F564552006673656E736F7295
:1046B0005F757064617465202D204D3630300A00BE
:1046C0006673656E736F725F6572725F636E74207E
:1046D0003D20300A0047312045332046323030003B
:1046E000473120452D332046323030004D373031B0
:1046F0000020573A0020453A00543A005A206C698D
:1047000076652061646A757374206F7574206F66B6
:104710002072616E67652E2053657474696E672020
:10472000746F20302E20436C69636B20746F20639C
:104730006F6E74696E75652E005A206C69766520FF
:1047400061646A757374206F7574206F662072617E
:104750006E67652E2053657474696E6720746F20D0
:10476000300048656174696E672064697361626CCA
:104770006564206279207361666574792074696D5F
:1047800065722E001000C90210012C0140012201A7
:1047900070011801B0010E01F00104015002FA008D
:1047A000B002F0003003E600D003DC009004D20039
:1047B0007005C800A006BE000008B400B009AA0039
:1047C000D00BA000600E960060118C0000158200D6
:1047D00020197800C01D6E00A0226400B0275A0086
:1047E000902C500000314600E0343C00103832007C
:1047F000903A2800603C1E00A03D1400803E0A0054
:10480000203F000070012C0190012701B00122011E
:10481000C0011D01F00118011002130130020E0148
:104820006002090190020401C002FF000003FA00C7
:104830004003F5008003F000D003EB002004E60005
:104840007004E100E004DC004005D700C005D200A0
:104850004006CD00D006C8008007C3003008BE0067
:10486000F008B900C009B400B00AAF00B00BAA004C
:10487000D00CA500000EA000500F9B00C0109600A9
:104880005012910000148C00C0158700B0178200F0
:10489000B0197D00D01B7800001E730040206E0010
:1048A00090226900F024640040275F0090295A009C
:1048B000E02B5500102E500020304B0010324600E7
:1048C000E033410090353C0010373700703832003B
:1048D000A0392D00B03A2800A03B2300603C1E0008
:1048E000103D1900903D1400103E0F00703E0A006C
:1048F000C03E0500003F000090137D00B015780019
:10490000F0177300601A6E00F01C6900A01F6400AD
:1049100050225F0020255A00E0275500902A5000C1
:10492000202D4B00A02F4600F031410010343C00F8
:10493000F0353700A037320020392D00603A2800CA
:10494000703B2300603C1E00203D1900C03D140058
:10495000403E0F00A03E0A00F03E0500403F000030
:10496000703FFBFF903FF6FFB03FF1FFC03FECFF11
:10497000D03FE7FFE03FE2FFF03FDDFFF03FD8FF31
:1049800020484F54454E4420544845524D414C20F8
:1049900052554E41574159002048454154424544E3
:1049A00020544845524D414C2052554E4157415993
:1049B00000544845524D414C2052554E41574159A3
:1049C0000042454420544845524D414C2052554EDA
:1049D000415741590020544845524D414C205255B1
:1049E0004E415741592028205052454845415420B6
:1049F000484F54454E44290020544845524D414C9F
:104A00002052554E41574159202820505245484583
:104A1000415420484541544245442900505245489C
:104A2000454154204552524F520042454420505275
:104A30004548454154204552524F52004572723A02
:104A4000204D415854454D50003A204578747275B8
:104A5000646572207377697463686564206F666645
:104A60002E204D415854454D50207472696767653A
:104A70007265642021004572723A204D41585445B8
:104A80004D50204245440054656D706572617475E7
:104A9000726520686561746564206265642073775F
:104AA000697463686564206F66662E204D415854B2
:104AB000454D5020747269676765726564202100F6
:104AC0004572723A204D494E54454D50204245445E
:104AD0000054656D706572617475726520686561FA
:104AE00074656420626564207377697463686564C3
:104AF000206F66662E204D494E54454D50207472ED
:104B0000696767657265642021004572723A204DBD
:104B1000494E54454D50003A20457874727564658D
:104B200072207377697463686564206F66662E20EF
:104B30004D494E54454D50207472696767657265E2
:104B400064202100746D63323133305F686F6D65AE
:104B50005F656E74657228617865735F6D61736BF4
:104B60003D307825303278290A00746D6332313354
:104B7000305F686F6D655F6578697420746D63324E
:104B80003133305F73675F686F6D696E675F61783F
:104B900065735F6D61736B3D3078253032780A0044
:104BA000544D4320445249564552204F5645525485
:104BB000454D500025632533642F25642563005A35
:104BC00025362E326620005A2020202D2D2D200043
:104BD00025632533642525002D2D2D002533686898
:104BE00064002533532533732525002053440020CA
:104BF000202000555342002025753E257500204693
:104C000025750020463020200025632D2D3A2D2DBE
:104C10002020002563253375682025632563002542
:104C200063253032753A253032752563256300726D
:104C30006573756C742076616C75653A2025640A1D
:104C40000020693D25326420636E743D2532642066
:104C500076616C3D2532640A00636C75737465720D
:104C6000733A0A0020693D25326420737465703DF3
:104C70002532640A00736F727465642073616D700D
:104C80006C65733A0A003A20002020202020202062
:104C900020202020202020202020202000203A201A
:104CA0000020202020202020202020202020202024
:104CB0002020202020002020202020202020202014
:104CC0002020200025730050494E44412048656152
:104CD00074696E670054656D702E2063616C2E20C0
:104CE0002020202020202020200043616C69627257
:104CF0006174696F6E20646F6E650043616C6962F8
:104D0000726174696E67205A0042656420646F6E38
:104D100065004265642048656174696E6700486596
:104D20006174696E6720646F6E652E0048656174FA
:104D3000696E6700526573756D696E672070726980
:104D40006E7400537570706F7274004661696C20E8
:104D500073746174730053746174697374696373F9
:104D600020200043616C6962726174696F6E00415A
:104D700075746F4C6F61642066696C616D656E74EB
:104D800000556E6C6F61642066696C616D656E7450
:104D900000456A6563742066696C616D656E7400B8
:104DA0004C6F616420746F206E6F7A7A6C65004C72
:104DB0006F61642066696C616D656E74004E6F2072
:104DC00053442063617264005072696E742066728D
:104DD0006F6D20534400526573756D652070726964
:104DE0006E74005061757365207072696E74005046
:104DF0007265686561740054756E65004C6976650E
:104E00002061646A757374205A00496E666F20735E
:104E1000637265656E0046696E697368696E6720C6
:104E20006D6F76656D656E747300536F756E64207B
:104E300020202020205B6C6F75645D00536F756EC1
:104E4000642020202020205B6D7574655D00536F09
:104E5000756E64202020205B73696C656E745D0044
:104E6000536F756E642020202020205B6F6E636579
:104E70005D00536F756E642020202020205B6C6FD6
:104E800075645D004372617368206465742E202030
:104E90005B4E2F415D004372617368206465742E20
:104EA0002020205B6F6E5D00437261736820646533
:104EB000742E20205B6F66665D004D6F6465202058
:104EC00020205B537465616C74685D004D6F646590
:104ED00020202020205B4E6F726D616C5D00466962
:104EE0006C2E2073656E736F7220205B6F6E5D0099
:104EF00046696C2E2073656E736F72205B6F6666F9
:104F00005D004368616E67652066696C616D656E02
:104F10007400466C6F770053706565640046616E7F
:104F200020737065656400426564004E6F7A7A6C28
:104F3000650053657474696E6773005072696E74AE
:104F40002061626F7274656400596573004E6F0072
:104F500053746F70207072696E740046696C6520BE
:104F6000696E636F6D706C6574652E20436F6E742F
:104F7000696E756520616E797761793F004D616971
:104F80006E004D3730322043004661726D206E75E1
:104F90006D626572004D363030004D3234004D3256
:104FA0003320257300052E2E0043616E6E6F742032
:104FB000656E746572207375626469723A2000537D
:104FC000442063617264206F6B006F70656E526F76
:104FD0006F74206661696C656400766F6C756D65D1
:104FE0002E696E6974206661696C656400534420A3
:104FF000696E6974206661696C0057726974696EC4
:105000006720746F2066696C653A200046696C659C
:105010002073656C6563746564002053697A653A32
:10502000200046696C65206F70656E65643A2000EB
:105030001F1F1F1F1F1F1F1F2E002E004E6F7720C8
:1050400066726573682066696C653A20004E6F77FA
:1050500020646F696E672066696C653A20002220C3
:10506000706F73002220706172656E743A22005373
:105070005542524F5554494E452043414C4C2074A3
:1050800061726765743A2200747279696E67207480
:105090006F2063616C6C207375622D67636F64654C
:1050A0002066696C6573207769746820746F6F205F
:1050B0006D616E79206C6576656C732E204D41585C
:1050C000206C6576656C2069733A00536F72746961
:1050D0006E672066696C657300536F6D6520666945
:1050E0006C65732077696C6C206E6F74206265202C
:1050F000736F727465642E204D61782E204E6F2E72
:10510000206F662066696C657320696E20312066A9
:105110006F6C64657220666F7220736F7274696E53
:1051200067206973203130302E0077323578323085
:10513000636C5F63666D0A00773235783230636C7A
:105140005F656E7465720A0020746F6F206C6F6EFD
:105150006720657874727573696F6E2070726576FA
:10516000656E7465640020636F6C6420657874728A
:105170007573696F6E2070726576656E7465640014
:1051800046696C616D656E742073656E736F723AFB
:10519000005072696E742066616E3A0045787472D0
:1051A000756465722066616E3A0053656C6674655D
:1051B0007374206661696C6564202000416C6C200A
:1051C000636F727265637420202020202000436882
:1051D00065636B696E672073656E736F7273200011
:1051E000436865636B696E672062656420202020D8
:1051F0002000436865636B696E67205A2061786997
:1052000073202000436865636B696E6720592061D5
:10521000786973202000436865636B696E67205866
:105220002061786973202000436865636B696E674D
:1052300020686F74656E64202000436865636B6945
:105240006E6720656E6473746F7073004572726F61
:1052500072202D20737461746963206D656D6F72A7
:105260007920686173206265656E206F766572775C
:1052700072697474656E00436172642072656D6F4B
:10528000766564004361726420696E73657274654B
:1052900064002D2D2D2D2D2D2D2D2D2D2D2D2D2D34
:1052A0002D2D2D2D2D2D0043616C69627261746965
:1052B0006E6720686F6D65000000000000110A0431
:1052C000505255534133444657002079303D2564B0
:1052D0000A002078303D25640A004F4B0A004552F1
:1052E000524F522061643D25640A002020207A300C
:1052F0003D25640A00207A303D25640A002079307B
:105300003D25640A002078303D25640A0078797ACA
:1053100063616C5F66696E645F706F696E745F6312
:10532000656E746572320A000000210024002700B7
:105330002A002D00300033000101000004010701A4
:105340000A01000020002300260029002C002F0065
:1053500032000001000003010601090100000A0BF0
:1053600002090C0D0E0807030401000000000000F4
:10537000000000000000000000000000000000002D
:1053800000000000000000001211100000000000EA
:10539000000000000000000000000000000000000D
:1053A00000000000000000000000000000000000FD
:1053B000000057616974696E6720666F72206E6FB6
:1053C0007A7A6C6520616E642062656420636F6F19
:1053D0006C696E670053656C662074657374204F4A
:1053E0004B0053656C66207465737420737461722E
:1053F0007420200046696C616D656E742073656E63
:10540000736F7200537761707065640046726F6EDF
:10541000742F6C6566742066616E730041786973E1
:105420000041786973206C656E677468004C6F6F1B
:1054300073652070756C6C657900456E6473746F6C
:1054400070206E6F742068697400456E6473746FA9
:1054500070004D6F746F7200456E6473746F70737B
:1054600000576972696E67206572726F72004265DB
:1054700064202F20486561746572004E6F7420634C
:105480006F6E6E6563746564004865617465722F44
:10549000546865726D6973746F7200506C656173E6
:1054A0006520636865636B203A0053656C667465BC
:1054B0007374206572726F722021006C63645F7375
:1054C000656C66636865636B5F61786973202564EA
:1054D0002C2025640A004D3834004731205A3135DC
:1054E00020463130303000473238205700256320C5
:1054F00041584953205347313D25640A004178699A
:1055000073206C656E677468206469666665726591
:105510006E63653A252E33660A004D6561737572B8
:1055200065642061786973206C656E6774683A25DC
:105530002E33660A00332E352E3100726300626509
:10554000746100616C706861006465760078797AD6
:1055500063616C5F73706972616C322063783D25A2
:10556000642063793D2564207A303D256420647A87
:105570003D2564207261646975733D256420616412
:105580003D25640A00010210202008081020401068
:1055900020408002010201080402010102040810F7
:1055A0002040808040201008040201800402018015
:1055B000402010080402010804020101020408103E
:1055C0002040800102040810204080100804088058
:1055D000102040044080102040048000002200255C
:1055E0000028002B002E00310034000201000005CD
:1055F0000108010B01050505050705080808080253
:105600000202020A0A08080404040401010101015B
:105610000101010303030303030303040707070C4A
:105620000C0C0C0C0C0C0C02020202060606060600
:105630000606060B0B0B0B0B0B0B0B07070A0A0AD4
:105640000A0A0A050505040404080802746D633299
:105650003133305F676F746F5F73746570202564DA
:10566000202564202564202564200A002E006F7008
:10567000656E206661696C65642C2046696C653ACC
:105680002000436F6E74696E7565207769746820B9
:10569000616E6F7468657220626F7764656E3F003B
:1056A0002500202020202020002020202020200055
:1056B00045524153494E4720616C6C2064617461CE
:1056C00000466163746F727920524553455400005F
:1056D000007F43008054430000524300000000005C
:1056E0000080C09A99193E00000000000080C09A16
:1056F00099193E0000A0400000A040000000402595
:10570000336420737465703D253264206D73636E5D
:10571000743D2534640A0000007F43008058439A9A
:10572000D95143FFFFFF46696C616D656E74206F50
:105730007574206F662072616E6765202564200A8B
:105740000067636F64655F4D37303120626567695C
:105750006E0A00504154393132355F5245535F591A
:105760003D256868750A00504154393132355F5221
:1057700045535F583D256868750A0055534152549A
:10578000322072782046756C6C2121210A00536505
:105790007474696E67732053746F72656400537418
:1057A0006F7265642073657474696E6773207265C7
:1057B000747269657665640048617264636F6465DC
:1057C000642044656661756C742053657474696EF9
:1057D0006773204C6F6164656400563200000000FE
:1057E000C8420000C8420000C84300804F44000087
:1057F000484300004843000040410000F042E803F5
:105800000000E8030000C80000008813000000400A
:105810009C4400409C440000000000000000204E1A
:1058200000000000204100002041CDCCCC3E000013
:105830002040000000000000000000000000CDCC6F
:10584000CC3E3D0A8141FF08433EB099AB438F42B5
:10585000FC42E65A343F4C62B04500000000004074
:105860004000003442000000000000000000000082
:1058700041000000E03F0000C8420000C8420000B4
:1058800040410000F042C0030000C0030000C80017
:10589000000088130000454550524F4D204572725C
:1058A0006F720000002110422063308440A550C672
:1058B00060E770088129914AA16BB18CC1ADD1CE4E
:1058C000E1EFF13112100273325222B5529442F7D5
:1058D00072D662399318837BB35AA3BDD39CC3FF9E
:1058E000F3DEE36224433420040114E664C774A4A5
:1058F0004485546AA54BB528850995EEE5CFF5ACEE
:10590000C58DD55336722611163006D776F66695B4
:1059100056B4465BB77AA719973887DFF7FEE79D3D
:10592000D7BCC7C448E5588668A778400861180204
:10593000282338CCC9EDD98EE9AFF9488969990A8D
:10594000A92BB9F55AD44AB77A966A711A500A3314
:105950003A122AFDDBDCCBBFFB9EEB799B588B3BDD
:10596000BB1AABA66C877CE44CC55C222C033C6064
:105970000C411CAEED8FFDECCDCDDD2AAD0BBD682D
:105980008D499D977EB66ED55EF44E133E322E51F4
:105990001E700E9FFFBEEFDDDFFCCF1BBF3AAF597D
:1059A0009F788F8891A981CAB1EBA10CD12DC14EEE
:1059B000F16FE18010A100C230E320045025404681
:1059C000706760B9839893FBA3DAB33DC31CD37FA0
:1059D000E35EF3B1029012F322D2323542145277D1
:1059E000625672EAB5CBA5A89589856EF54FE52C70
:1059F000D50DC5E234C324A0148104667447642421
:105A0000540544DBA7FAB79987B8975FE77EF71D7F
:105A1000C73CD7D326F2369106B016576676761570
:105A20004634564CD96DC90EF92FE9C899E9898ACF
:105A3000B9ABA94458654806782768C018E10882C0
:105A400038A3287DCB5CDB3FEB1EFBF98BD89BBBDF
:105A5000AB9ABB754A545A376A167AF10AD01AB310
:105A60002A923A2EFD0FED6CDD4DCDAABD8BADE82F
:105A70009DC98D267C076C645C454CA23C832CE060
:105A80001CC10C1FEF3EFF5DCF7CDF9BAFBABFD9BF
:105A90008FF89F176E367E554E745E932EB23ED1B0
:105AA0000EF01E7C3C3E5E2B3D3F2F5B5D3B2C2A67
:105AB000225C004D3234004D323320257300617575
:105AC000746F25692E670022206661696C65643AEF
:105AD000204275666665722066756C6C2100456EA5
