:100000000C9477310C94A8310C94A8310C94A8313D
:100010000C94A8310C94D67C0C94A8310C94A83183
:100020000C946A800C94A8310C943D980C94A831DF
:100030000C94A8310D9494460D94751F0D94296E5F
:100040000C94A8310C9423DB0C94A8310C94A831A7
:100050000C94A8310C94A8310C94A8310D94F64757
:100060000C94A8310D94E7540C94A8310C94A83149
:100070000C94A8310C94A8310C94A8310C94A8319C
:100080000C94A8310C94A8310C94A8310C94A8318C
:100090000D94A3540C94A8310C94A8310C94A8315D
:1000A0000C94A8310C94A8310C94A8310C94A8316C
:1000B0000C94A8310C94A8310C94A8310C94A8315C
:1000C0000C94A8310C94A8310C94A8310D94676D50
:1000D0000C94A8310C94A8310C94A8310C94A8313C
:1000E0000C94A831F496F896FE96079720973D97C2
:1000F0007A97AF9754C462C468C47AC496C49CC447
:10010000A2C4B0C4BEC4CCC4E3C4DC016001B40169
:100110001602CC01C601EA01760132014A01000251
:100120003801E40138029A016A01FC018E0198014C
:100130005C01C001CA016E011E0232028C015A012B
:1001400004029001E2012E010202B801AC01780123
:10015000360184013C01E2011202B60180019C01DA
:100160002202D0015601D401BC015801D8017E0100
:100170002E02140286015201F401BC018801F8012B
:10018000C801084AD73B3BCE016E84BCBFFDC12FDE
:100190003D6C74319ABD56833DDA3D00C77F11BE78
:1001A000D9E4BB4C3E916BAAAABE000000803F057B
:1001B000A84CCDB2D44EB93836A9020C50B99186AC
:1001C00088083CA6AAAA2ABE000000803F07634216
:1001D00036B79BD8A71A39685618AEBAAB558C1DDE
:1001E0003CB7CC5763BD6DEDFD753EF6177231BF60
:1001F000000000803F08000000BE922449123EAB80
:10020000AAAA2ABECDCCCC4C3E00000080BEABAA30
:10021000AAAA3E00000000BF000000803F000000CE
:100220000000084178D3BB4387D1133D190E3CC36E
:10023000BD4282AD2B3E68EC8276BED98FE1A93EED
:100240004C80EFFFBE01C4FF7F3F000000000000B4
:100250000D94F76A0D94BE090D94F6700D944845FF
:100260000D94B2750D94BF1B0D9404460D9460451A
:100270000D94CA3A0D948B450D9468450D94E15543
:100280000D9457750D942A750D9491120D94C258C2
:100290000D941B080D941D1C0D94B5040D94595517
:1002A0000D94A1750D94BB470D94EA080D946A470F
:1002B0000D947E470D9433450D94593B0D9489124E
:1002C0000D94211A0D947D0C0D943A800D941674A2
:1002D0000D94860C0D94213B0D9456570D94763B4E
:1002E0000D94F5070D948F0C0D9474070D941F1B3E
:1002F0000D945A450D9463110D948C120D948E47F4
:100300000D9476450D94F17C0D9464450D94AC47A5
:100310000D94CF470D9432120D9444450D94483BF3
:100320000D943D450D949B120D94980C0D949C7466
:100330000D94563B0D94F33A0D9456470D94DF758A
:100340000D9497700D9444720D9414460D947C4551
:100350000D9404590D94DE6A0D9456450D94F3A244
:100360000D9486120D94C1750D94D4190D94724597
:100370000D9452450D94D43B0D94ED470D94A87106
:100380000D945B3B0D94FC750D9470760D94731C6D
:100390000D94E3470D94653B0D9474190D94275605
:1003A0000D9460470D9491750D9474470D9423AD91
:1003B0000D9486470D9460350D941A1A0D94DB3513
:1003C0000D940E050D947B450D94DC3A0D941F722F
:1003D0000D949B550D94461A0D9464120D943B7028
:1003E0000D94F34B0D9419760D94C5470D94110897
:1003F0000D94D9470D94E5350D94423B0D94367616
:100400000D94B43A0D944C450D9437450D948245A6
:100410000D94D20F0D940E390D9486450D940C0F4A
:100420000D94E7740D946E450D94A2470D94A31995
:100430000D94C90D0D9469700D944B350D94873B47
:100440000D9496120D945B470D94A0120D94B387F2
:100450000D942B550D9441570D9453760D94984758
:100460000D94F8340D9441450D94350A0D948D7614
:100470000D94E93A6E616E00696E66004E414E4918
:100480004E495459494E46CDCCCC3D0AD7233C1752
:10049000B7D13877CC2B329595E6241FB14F0A009F
:1004A0000020410000C84200401C4620BCBE4CCA8F
:1004B0001B0E5AAEC59D7400407A10F35A00A0720C
:1004C0004E18090010A5D4E80000E876481700008F
:1004D000E40B54020000CA9A3B000000E1F505005D
:1004E0000080969800000040420F000000A08601A6
:1004F000000000102700000000E803000000006476
:1005000000000000000A00000000000100000000E0
:10051000002C76D888DC674F0823DFC1DFAE59E1B5
:10052000B1B796E5E3E453C63AE651997696E8E624
:10053000C28426EB898C9B62ED407C6FFCEFBC9CF7
:100540009F40F2BAA56FA5F490055A2AF75C936B09
:100550006CF9676DC11BFCE0E40D47FEF520E6B5C4
:1005600000D0ED902E0300943577050080841E089E
:100570000000204E0A000000C80C333333330F98BC
:100580006E12831141EF8D2114893BE65516CFFE83
:10059000E6DB18D1844B381BF77C1D901DA4BBE40F
:1005A00024203284725E228100C9F124ECA1E53D51
:1005B000276364696E6F70737578585B00256420DB
:1005C0006279746573207772697474656E20746FD4
:1005D00020454550524F4D2061742061646472651E
:1005E000737320307825303478004433202D205226
:1005F0006561642F577269746520454550524F4DAF
:100600000A0020436F756E7420583A20005344202E
:100610007072696E74696E67206279746520004E2D
:100620006F7420696E206661726D206D6F64652E37
:1006300000416374697665204578747275646572EB
:100640003A2000496E76616C696420657874727531
:10065000646572005A204F666673657400556E6B50
:100660006E6F776E20636F6D6D616E643A2022004D
:100670004D32303020496E76616C69642065787443
:10068000727564657220007A5F6D61783A20007A35
:100690005F6D696E3A2000795F6D61783A2000796C
:1006A0005F6D696E3A2000785F6D61783A20006F67
:1006B00070656E0054524947474552454400785F83
:1006C0006D696E3A20005265706F7274696E6720B2
:1006D000656E6473746F7020737461747573000059
:1006E00053494C454E54004E4F524D414C002553FA
:1006F000204D4F44453A2050657263656E74206406
:100700006F6E653A2025643B207072696E742074A8
:10071000696D652072656D61696E696E6720696ECD
:10072000206D696E733A2025640A00456E64206668
:10073000696C65206C69737400426567696E206638
:10074000696C65206C6973740025643A2025640A1D
:10075000000A50494E44412074656D7065726174A1
:100760007572653A20252E3166205A2073686966B5
:100770007420286D6D293A20252E3366000A5374A3
:1007800065703A2025642F360A000A537465703A62
:100790002025642F362028736B6970706564290AE0
:1007A00050494E44412074656D7065726174757274
:1007B000653A202564205A20736869667420286D84
:1007C0006D293A300A000A5A45524F3A20252E33F5
:1007D000660A0073746172742074656D706572616D
:1007E000747572653A20252E31660A002564202032
:1007F000252E326600255320583A20252E356620B6
:10080000593A20252E3566205A3A20252E35660A7B
:1008100000536C6565702E2E2E004E6F7420696E2D
:10082000206661726D206D6F64652E002564004541
:10083000303A25642052504D0A50524E303A2564C9
:100840002052504D0A002564004175746F00204508
:100850002F443D00416476616E6365204B3D004D41
:100860003232302053256900255346696C616D652D
:100870006E742073657474696E67733A204469738B
:1008800061626C65640A00255346696C616D656E32
:10089000742073657474696E67733A0A2553202057
:1008A000204D3230302044252E32660A0025535226
:1008B0006574726163743A20533D4C656E67746869
:1008C00020286D6D2920463A537065656420286D97
:1008D0006D2F6D29205A3A205A4C69667420286D74
:1008E0006D290A25532020204D3230372053252EE4
:1008F00032662046252E3266205A252E32660A257B
:10090000535265636F7665723A20533D4578747231
:1009100061206C656E67746820286D6D2920463AE9
:10092000537065656420286D6D2F6D290A2553204D
:1009300020204D3230382053252E32662046252E79
:1009400032660A25534175746F2D52657472616366
:10095000743A20533D3020746F2064697361626C77
:10096000652C203120746F20696E74657270726519
:100970007420657874727564652D6F6E6C79206D66
:100980006F7665732061732072657472616374732E
:10099000206F72207265636F7665726965730A25D0
:1009A000532020204D323039205325640A0025532E
:1009B000504944206865617462656420736574748D
:1009C000696E67733A0A25532020204D3330342056
:1009D00050252E32662049252E32662044252E329F
:1009E000660A0025535049442073657474696E6724
:1009F000733A0A25532020204D3330312050252EC4
:100A000032662049252E32662044252E32660A00A1
:100A1000255353746570732070657220756E697408
:100A20003A0A255320204D39322058252E3266208F
:100A300059252E3266205A252E32662045252E3223
:100A4000660A25534D6178696D756D20666565642C
:100A50007261746573202D206E6F726D616C202839
:100A60006D6D2F73293A0A255320204D32303320E3
:100A700058252E32662059252E3266205A252E32D0
:100A8000662045252E32660A25534D6178696D75BD
:100A90006D20666565647261746573202D207374C2
:100AA00065616C746820286D6D2F73293A0A25538F
:100AB00020204D3230332058252E32662059252EE5
:100AC0003266205A252E32662045252E32660A25AA
:100AD000534D6178696D756D20616363656C6572F6
:100AE0006174696F6E202D206E6F726D616C2028AD
:100AF0006D6D2F7332293A0A255320204D32303143
:100B00002058256C752059256C75205A256C752048
:100B100045256C750A25534D6178696D756D2061A9
:100B20006363656C65726174696F6E202D207374E8
:100B300065616C746820286D6D2F7332293A0A251F
:100B40005320204D3230312058256C752059256CAA
:100B500075205A256C752045256C750A255341630F
:100B600063656C65726174696F6E3A20533D6163B1
:100B700063656C65726174696F6E2C20543D72659B
:100B8000747261637420616363656C65726174691A
:100B90006F6E0A255320204D3230342053252E32DB
:100BA000662054252E32660A2553416476616E63B1
:100BB0006564207661726961626C65733A20533DA9
:100BC0004D696E20666565647261746520286D6D7F
:100BD0002F73292C20543D4D696E20747261766507
:100BE0006C20666565647261746520286D6D2F7375
:100BF000292C20423D6D696E696D756D20736567A6
:100C00006D656E742074696D6520286D73292C20C4
:100C1000583D6D6178696D756D205859206A65720F
:100C20006B20286D6D2F73292C20205A3D6D617823
:100C3000696D756D205A206A65726B20286D6D2F65
:100C400073292C2020453D6D6178696D756D2045B7
:100C5000206A65726B20286D6D2F73290A25532039
:100C6000204D3230352053252E32662054252E3229
:100C7000662042252E32662058252E3266205925C0
:100C80002E3266205A252E32662045252E32660ADF
:100C90002553486F6D65206F666673657420286DF7
:100CA0006D293A0A255320204D3230362058252E02
:100CB00032662059252E3266205A252E32660A00C9
:100CC0004625642025640A004D4D55203C3D2027D3
:100CD000462564202564270A005049442041757444
:100CE0006F74756E652066696E697368656421202E
:100CF00050757420746865206C617374204B702C7F
:100D0000204B6920616E64204B6420636F6E7374A6
:100D1000616E74732066726F6D2061626F766520FC
:100D2000696E746F20436F6E66696775726174696E
:100D30006F6E2E6800504944204175746F74756E53
:100D400065206661696C6564212074696D656F75E5
:100D5000740020403A00543A00423A00504944207E
:100D60004175746F74756E65206661696C65642188
:100D70002054656D706572617475726520746F6F53
:100D8000206869676800204B643A2000204B693A6C
:100D90002000204B703A200020436C61737369631C
:100DA0002050494420002054753A2000204B753AC9
:100DB0002000206D61783A2000206D696E3A200095
:100DC00020643A200020626961733A200020453A8D
:100DD00000205A3A0020593A0020453A00205A3A59
:100DE0000020593A00583A00005A30005A31005950
:100DF0003000593100583000583100456E6420737E
:100E0000746F70732064696167002E0044656C65BF
:100E100074696F6E206661696C65642C2046696C2C
:100E2000653A200046696C652064656C657465648C
:100E30003A004E6F74205344207072696E74696E6C
:100E400067005072696E7420736176656400534464
:100E5000207072696E7420706175736564000A0099
:100E60002F000A002F2F20616374696F6E3A63614F
:100E70006E63656C0043524153485F43414E4345A6
:100E80004C0043524153485F5245434F5645520030
:100E900043524153485F5245434F56455200222822
:100EA00032290054004475706C6963697420542DB4
:100EB000636F64652069676E6F7265642E0A004413
:100EC00075706C6963697420542D636F6465206963
:100ED000676E6F7265642E0A00496E76616C696494
:100EE000205420636F64652E00556E6B6E6F776EB5
:100EF000204D20636F64653A202573200A006E6FD1
:100F00002076616C696420636F6D6D616E64002C86
:100F100020002C20002C20006E2F61002C20002CA3
:100F200020002C20006E2F61002F00503A005761E6
:100F3000697420666F722050494E4441207461727A
:100F40006765742074656D70657261747572653A59
:100F5000004C414E472053454C20464F5243454498
:100F600000222831290030303030303030302D3000
:100F70003030302D303030302D303030302D30307A
:100F8000303030303030303030300020555549442A
:100F90003A0031002045585452554445525F434F62
:100FA000554E543A005072757361206933204D4B91
:100FB0003300204D414348494E455F545950453A0E
:100FC00000312E3000206261736564206F6E204D09
:100FD00061726C696E204649524D574152455F55CA
:100FE000524C3A68747470733A2F2F67697468753D
:100FF000622E636F6D2F707275736133642F507240
:101000007573612D4669726D776172652050524F1C
:10101000544F434F4C5F56455253494F4E3A00464A
:1010200049524D574152455F4E414D453A507275B8
:1010300073612D4669726D7761726520004D3131A3
:101040003320530020423A0020453A00543A002011
:10105000413A0020503A002042403A0020403A00F5
:10106000202F003A00205400202F0020423A002078
:101070002F006F6B20543A002569206D696E2C207B
:1010800025692073656300496E76616C6964204D43
:1010900020636F64653A202573200A00556E6B6EDD
:1010A0006F776E204720636F64653A202573200AAE
:1010B000004D65736820626564206C6576656C69B7
:1010C0006E67206E6F74206163746976652E000A06
:1010D000002020000A4D6561737572656420706F91
:1010E000696E74733A000A5A2073656172636820EE
:1010F0006865696768743A20002C004E756D205849
:101100002C593A2000206D6963726F6E7300457828
:101110006365737369766520626564206C657665C6
:101120006C696E6720636F7272656374696F6E3A83
:1011300020004732382057300050494E444120703B
:10114000726F62652063616C6962726174696F6E4F
:1011500020737461727400473238205730004D326A
:1011600034005345545F43484F505F005345545F2C
:10117000535445505F005345545F574156455F00F7
:10118000544D435F0043524153485F0050726573B2
:1011900073206B6E6F6220746F207072656865617A
:1011A00074206E6F7A7A6C6520616E6420636F6E56
:1011B00074696E75652E00506C6561736520707280
:1011C00065737320746865206B6E6F6220746F2086
:1011D000756E6C6F61642066696C616D656E74001C
:1011E00052656D6F7665206F6C642066696C616D09
:1011F000656E7420616E642070726573732074680C
:1012000065206B6E6F6220746F207374617274203E
:101210006C6F6164696E67206E65772066696C61CA
:101220006D656E742E00616E64207072657373203C
:10123000746865206B6E6F6200496E73657274200E
:1012400066696C616D656E7400436F6C6F72206EC1
:101250006F7420636F72726563740046696C616DB0
:10126000656E74206E6F74206C6F616465640043FA
:1012700068616E67656420636F72726563746C7910
:101280003F004C6F6164696E6720636F6C6F720022
:101290004368616E676520737563636573732100CE
:1012A000506C65617365206F70656E2069646C6554
:1012B0007220616E642072656D6F76652066696C60
:1012C000616D656E74206D616E75616C6C792E0058
:1012D0005761732066696C616D656E7420756E6C04
:1012E0006F6164207375636365737366756C3F002B
:1012F000506C6561736520757067726164652E005E
:101300004E6577206669726D7761726520766572C9
:1013100073696F6E20617661696C61626C653A0019
:1013200057616974696E6720666F722050494E4438
:10133000412070726F626520636F6F6C696E670029
:1013400043726173682064657465637465642E20FC
:10135000526573756D65207072696E743F004372DB
:101360006173682064657465637465642E004578F4
:101370007472756465720043686F6F736520657879
:101380007472756465723A0043686F6F73652066A6
:10139000696C616D656E743A004E6F206D6F766595
:1013A0002E005761697420666F7220757365722E06
:1013B0002E2E00536F6D652070726F626C656D200C
:1013C000656E636F756E74657265642C205A2D6C42
:1013D0006576656C696E6720656E666F72636564BD
:1013E000202E2E2E00537461626C6520616D62693F
:1013F000656E742074656D706572617475726520B8
:1014000032312D323643206973206E656564656420
:101410002061207269676964207374616E64206959
:10142000732072657175697265642E00506C656118
:1014300073652072756E2058595A2063616C696219
:10144000726174696F6E2066697273742E007374B2
:101450006172740A006164635F696E69740A0000F6
:10146000202D20496E76616C6964206578747275F0
:10147000646572206E756D6265722021001B5B329F
:101480004A1B5B313B31484F726967696E616C2062
:1014900050727573612069331B5B323B3348507265
:1014A000757361205265736561726368004661639C
:1014B000746F7279205245534554004A616E203250
:1014C00039203230313900436F6D70696C65643A90
:1014D0002000286E6F6E652C2064656661756C74E3
:1014E00020636F6E66696729004A616E2032392079
:1014F000323031392031393A31343A313000203309
:101500002E352E312D323630300A002055706C6F5A
:10151000616420696E2070726F677265737300205A
:101520005A3A0020593A0020583A00435241534851
:101530005F44455445435445445859004352415330
:10154000485F444554454354454459004352415330
:10155000485F444554454354454458004D32390092
:101560005072757361206933204D4B332072656171
:1015700064792E00426C61636B6F7574206F6363D6
:1015800075727265642E205265636F766572207085
:1015900072696E743F0053656C667465737420776E
:1015A000696C6C2062652072756E20746F206361B7
:1015B0006C696272617465206163637572617465E0
:1015C0002073656E736F726C657373207265686FDC
:1015D0006D696E672E0054686572652069732073AB
:1015E00074696C6C2061206E65656420746F206D79
:1015F000616B65205A2063616C6962726174696F06
:101600006E2E20506C6561736520666F6C6C6F7711
:1016100020746865206D616E75616C2C2063686153
:101620007074657220466972737420737465707388
:101630002C2073656374696F6E2043616C696272FC
:101640006174696F6E20666C6F772E005072696EE0
:1016500074657220686173206E6F74206265656EB8
:101660002063616C69627261746564207965742EAF
:1016700020506C6561736520666F6C6C6F772074A9
:101680006865206D616E75616C2C20636861707493
:1016900065722046697273742073746570732C20B0
:1016A00073656374696F6E2043616C696272617403
:1016B000696F6E20666C6F772E004F6C64207365C7
:1016C0007474696E677320666F756E642E2044654E
:1016D0006661756C74205049442C204573746570A4
:1016E00073206574632E2077696C6C2062652073AB
:1016F00065742E005761726E696E673A20626F746E
:1017000068207072696E74657220747970652061EA
:101710006E64206D6F74686572626F6172642074AC
:10172000797065206368616E6765642E0057617229
:101730006E696E673A207072696E74657220747992
:101740007065206368616E6765642E005761726E14
:10175000696E673A206D6F74686572626F6172645A
:101760002074797065206368616E6765642E00453A
:10177000787465726E616C2053504920666C617399
:101780006820573235583230434C206E6F742072C7
:101790006573706F6E64696E672E00437261736863
:1017A0004465746563742044495341424C45440088
:1017B000437261736844657465637420454E4142A9
:1017C0004C454421002020506C616E6E657242755C
:1017D0006666657242797465733A200020467265C8
:1017E00065204D656D6F72793A2000207C2041752F
:1017F00074686F723A2000204C61737420557064D5
:10180000617465643A200020536F66747761726575
:1018100020526573657400205761746368646F6754
:10182000205265736574002042726F776E206F7569
:1018300074205265736574002045787465726E611A
:101840006C20526573657400506F77657255700037
:101850006572726F722077726974696E6720746F37
:101860002066696C6500656E6473746F70732068C0
:1018700069743A2000446F6E6520736176696E6703
:101880002066696C652E006F6B0055564C4F202DFD
:1018900020656E642025640A007374707325640AE1
:1018A00000776F726C6420636F6F7264696E61742D
:1018B00065733A2028252E33662C20252E33662C7E
:1018C00020252E3366290A00706879736963616C7C
:1018D00020636F6F7264696E617465733A202825A6
:1018E0002E33662C20252E33662C20252E33662998
:1018F0000A0043757272656E7420706F73205A5FB0
:10190000415849533A252E33660A43757272656E03
:101910007420706F7320455F415849533A252E3328
:10192000660A0041667465722077616974696E6742
:1019300020666F722074656D703A0A437572726525
:101940006E7420706F7320585F415849533A252EAA
:1019500033660A43757272656E7420706F73205916
:101960005F415849533A252E33660A00494E543494
:10197000007265636F7665725F6D616368696E653D
:101980005F73746174655F61667465725F706F77B1
:1019900065725F70616E69632C20696E697469613C
:1019A0006C20007265636F7665725F6D6163686954
:1019B0006E655F73746174655F61667465725F7094
:1019C0006F7765725F70616E69632C20696E6974F0
:1019D00069616C200047393220450050525553410F
:1019E0002075766C6F004734205330004D3236201E
:1019F00053256C75004D3130362053004D38320080
:101A00004731204625640047312045322A64656607
:101A100061756C745F72657472616374696F6E2056
:101A200046343830004731205A00204632303030BA
:101A30000020590047312058004D383300506F7353
:101A40006974696F6E20726561642066726F6D20C3
:101A5000656570726F6D3A004D3233202573002E2C
:101A600067636F0046656564726174653A0047316B
:101A700020452D64656661756C745F726574726172
:101A80006374696F6E204634383000473120453525
:101A90002046313230004D3833004D31393020533B
:101AA0002564004D313039205325640047323820F9
:101AB000582059004731205A3235204638303000FE
:101AC0002046004731205A0020460047312045007B
:101AD0004D3833006F6B0A00627573793A2070617C
:101AE0007573656420666F7220696E70757400622C
:101AF0007573793A2070617573656420666F722022
:101B00007573657200627573793A2070726F6365E0
:101B10007373696E670000002110422063308440B7
:101B2000A550C660E770088129914AA16BB18CC1AC
:101B3000ADD1CEE1EFF13112100273325222B55223
:101B40009442F772D662399318837BB35AA3BDD3FC
:101B50009CC3FFF3DEE36224433420040114E664F3
:101B6000C774A44485546AA54BB528850995EEE54C
:101B7000CFF5ACC58DD55336722611163006D77603
:101B8000F6669556B4465BB77AA719973887DFF79C
:101B9000FEE79DD7BCC7C448E5588668A7784008CB
:101BA000611802282338CCC9EDD98EE9AFF94889EC
:101BB00069990AA92BB9F55AD44AB77A966A711A63
:101BC000500A333A122AFDDBDCCBBFFB9EEB799B3C
:101BD000588B3BBB1AABA66C877CE44CC55C222CB3
:101BE000033C600C411CAEED8FFDECCDCDDD2AAD8C
:101BF0000BBD688D499D977EB66ED55EF44E133E43
:101C0000322E511E700E9FFFBEEFDDDFFCCF1BBFDB
:101C10003AAF599F788F8891A981CAB1EBA10CD1B5
:101C20002DC14EF16FE18010A100C230E3200450BD
:101C3000254046706760B9839893FBA3DAB33DC330
:101C40001CD37FE35EF3B1029012F322D23235420D
:101C5000145277625672EAB5CBA5A89589856EF5C0
:101C60004FE52CD50DC5E234C324A014810466745D
:101C7000476424540544DBA7FAB79987B8975FE710
:101C80007EF71DC73CD7D326F2369106B0165766AD
:101C90007676154634564CD96DC90EF92FE9C89998
:101CA000E9898AB9ABA94458654806782768C018FD
:101CB000E1088238A3287DCB5CDB3FEB1EFBF98B70
:101CC000D89BBBAB9ABB754A545A376A167AF10A4D
:101CD000D01AB32A923A2EFD0FED6CDD4DCDAABD80
:101CE0008BADE89DC98D267C076C645C454CA23C9D
:101CF000832CE01CC10C1FEF3EFF5DCF7CDF9BAF50
:101D0000BABFD98FF89F176E367E554E745E932EEC
:101D1000B23ED10EF01E5265636F766572696E67D2
:101D2000207072696E74202020200058595A206358
:101D3000616C6962726174696F6E20616C6C207293
:101D4000696768742E20536B65772077696C6C2007
:101D5000626520636F727265637465642061757477
:101D60006F6D61746963616C6C792E0058595A20EB
:101D700063616C6962726174696F6E20616C6C2062
:101D800072696768742E20582F5920617865732016
:101D900061726520736C696768746C7920736B6518
:101DA0007765642E20476F6F64206A6F6221005848
:101DB000595A2063616C6962726174696F6E206F39
:101DC0006B2E20582F592061786573206172652031
:101DD00070657270656E646963756C61722E204304
:101DE0006F6E67726174756C6174696F6E732100D8
:101DF00058595A2063616C6962726174696F6E2010
:101E00006661696C65642E20526967687420667229
:101E10006F6E742063616C6962726174696F6E20A9
:101E2000706F696E74206E6F742072656163686193
:101E3000626C652E0058595A2063616C6962726148
:101E400074696F6E206661696C65642E2046726FDE
:101E50006E742063616C6962726174696F6E207068
:101E60006F696E7473206E6F742072656163686150
:101E7000626C652E0058595A2063616C6962726108
:101E800074696F6E206661696C65642E20506C65A4
:101E900061736520636F6E73756C74207468652060
:101EA0006D616E75616C2E0058595A2063616C69C2
:101EB00062726174696F6E20636F6D70726F6D69AD
:101EC0007365642E2052696768742066726F6E7441
:101ED0002063616C6962726174696F6E20706F69F2
:101EE0006E74206E6F7420726561636861626C65E8
:101EF0002E0058595A2063616C6962726174696F6F
:101F00006E20636F6D70726F6D697365642E20460D
:101F1000726F6E742063616C6962726174696F6E56
:101F200020706F696E7473206E6F742072656163C8
:101F30006861626C652E0058595A2063616C696251
:101F4000726174696F6E206661696C65642E2042EF
:101F500065642063616C6962726174696F6E207080
:101F60006F696E7420776173206E6F7420666F7571
:101F70006E642E00506C6561736520706C616365E2
:101F800020737465656C207368656574206F6E20BE
:101F9000686561746265642E0044697374616E6380
:101FA00065206265747765656E20746970206F6660
:101FB00020746865206E6F7A7A6C6520616E64208B
:101FC000746865206265642073757266616365205C
:101FD000686173206E6F74206265656E207365742E
:101FE000207965742E20506C6561736520666F6C76
:101FF0006C6F7720746865206D616E75616C2C2044
:1020000063686170746572204669727374207374BA
:102010006570732C2073656374696F6E20466972F6
:102020007374206C617965722063616C696272619E
:1020300074696F6E2E00506C616365206120736857
:10204000656574206F6620706170657220756E64BE
:10205000657220746865206E6F7A7A6C652064758D
:1020600072696E67207468652063616C6962726171
:1020700074696F6E206F66206669727374203420F5
:10208000706F696E74732E20496620746865206EC7
:102090006F7A7A6C65206361746368657320746815
:1020A000652070617065722C20706F776572206F8B
:1020B000666620746865207072696E746572206946
:1020C0006D6D6564696174656C792E00506C656135
:1020D00073652072656D6F766520737465656C201D
:1020E00073686565742066726F6D206865617462DF
:1020F00065642E00497320737465656C2073686590
:102100006574206F6E20686561746265643F0020AD
:102110006F66203400536561726368696E67206280
:1021200065642063616C6962726174696F6E2070AE
:102130006F696E7400206F662039004D656173759C
:1021400072696E67207265666572656E6365206888
:102150006569676874206F662063616C696272618B
:1021600074696F6E20706F696E7400506C65617376
:102170006520636C65616E20746865206E6F7A7A85
:102180006C6520666F722063616C6962726174694C
:102190006F6E2E20436C69636B207768656E2064D8
:1021A0006F6E652E004175746F20686F6D650078E5
:1021B000797A63616C5F6D656173737572655F6574
:1021C0006E7465720A0078797A63616C5F73706906
:1021D00072616C382063783D25642063793D256405
:1021E000207A303D256420647A3D25642072616444
:1021F0006975733D25642061643D25640A00787922
:102200007A63616C5F7365617263685A206E6F20D8
:102210007369676E616C0A20783D256C6420793D96
:10222000256C64207A3D256C640A00204F4E2D53A6
:1022300049474E414C20617420783D256420793D0A
:102240002564207A3D25642061643D25640A007878
:10225000797A63616C5F7365617263685A20783D57
:10226000256C6420793D256C64207A3D256C640AD8
:10227000000A00253032780078797A63616C5F73E8
:1022800063616E5F706978656C735F333278333287
:102290002063783D25642063793D2564206D696E57
:1022A0005F7A3D2564206D61785F7A3D25640A0080
:1022B000202532642025640A000A00253032780087
:1022C000206D696E3D2564206D61783D2564206434
:1022D00069663D25640A006D61785F633D2532645F
:1022E000206D61785F6C3D25640A006D61785F63E5
:1022F0003D2564206D61785F723D2564206D6178B5
:102300005F6D617463683D25640A0020783D256433
:1023100020793D2564207A3D25640A00207061748F
:102320007465726E20666F756E642061742025641A
:102330002025640A000000F000F801FC03FE07FEFF
:1023400007FE07FE07FC03F801F000000073697A3E
:10235000656F6628746F74616C293D25640A00738B
:10236000697A656F6628626C6F636B5F627566661B
:102370006572293D25640A0078797A63616C5F6D26
:10238000656173737572655F6C656176650A00706F
:102390006F696E743D256420783D256420793D2564
:1023A00064207A3D25640A0058025802584D584D61
:1023B000B004F055F055B00478797A63616C5F66CB
:1023C000696E645F6265645F696E64756374696F8A
:1023D0006E5F73656E736F725F706F696E745F7836
:1023E0007920783D256C6420793D256C64207A3D08
:1023F000256C640A00203C20005741524E494E474C
:102400003A2046726F6E7420706F696E74206E6F22
:102410007420726561636861626C652E2059206367
:102420006F6F7264696E6174653A0000000040412C
:102430000000C04000005C430000C04000005C435E
:102440000000464300004041000046434974657265
:102450006174696F6E3A200043616C6962726174E5
:10246000696F6E206661696C6564212043686563ED
:102470006B20746865206178657320616E642072DA
:10248000756E20616761696E2E00256920686F7521
:102490007273202569206D696E75746573005449E7
:1024A0004D454F55543A004D3131300046756C6CF6
:1024B00020525820427566666572006673656E73B9
:1024C0006F725F726573746F72655F7072696E743C
:1024D0005F616E645F636F6E74696E75650A004458
:1024E000495341424C45440A00454E41424C454403
:1024F000004653656E736F722025530A0050415495
:10250000393132355F696E69743A256868750A0039
:10251000504154393132355F696E69743A256868C3
:10252000750A0050415439313235206E6F74207273
:102530006573706F6E64696E672028256429210AAF
:1025400000446F6E65207072696E74696E672066F4
:10255000696C65005072696E7465722073746F7077
:102560007065642064756520746F206572726F7287
:10257000732E2046697820746865206572726F72C8
:1025800020616E6420757365204D39393920746F70
:1025900020726573746172742E202854656D7065A5
:1025A0007261747572652069732072657365742E2B
:1025B00020536574206974206166746572207265A9
:1025C0007374617274696E6729004E6F204C696E76
:1025D00065204E756D626572207769746820636846
:1025E00065636B73756D2C204C617374204C696E40
:1025F000653A20004E6F20436865636B73756D20EC
:1026000077697468206C696E65206E756D6265729D
:102610002C204C617374204C696E653A200063680D
:1026200065636B73756D206D69736D617463682C80
:10263000204C617374204C696E653A20004C696EC1
:1026400065204E756D626572206973206E6F74200F
:102650004C617374204C696E65204E756D626572B5
:102660002B312C204C617374204C696E653A20002C
:102670006673656E736F725F6175746F6C6F6164A2
:102680005F636865636B5F7374617274202D206192
:1026900075746F6C6F616420454E41424C45440A2D
:1026A000006673656E736F725F6175746F6C6F61D6
:1026B000645F636865636B5F73746F70202D206166
:1026C00075746F6C6F61642044495341424C4544BA
:1026D0000A0053544F505045442E2000746D63320D
:1026E0003133305F686F6D655F656E746572286148
:1026F0007865735F6D61736B3D3078253032782972
:102700000A00746D63323133305F686F6D655F65E9
:1027100078697420746D63323133305F73675F683A
:102720006F6D696E675F617865735F6D61736B3D37
:102730003078253032780A00726573756C742076B3
:10274000616C75653A2025640A0020693D25326474
:1027500020636E743D2532642076616C3D253264C1
:102760000A00636C7573746572733A0A0020693DE0
:1027700025326420737465703D2532640A00736FDE
:10278000727465642073616D706C65733A0A003A07
:102790002000202020202020202020202020202059
:1027A000202020202000203A20002020202020204F
:1027B0002020202020202020202020202020002039
:1027C00020202020202020202020202000257300F1
:1027D000544D4320445249564552204F5645525479
:1027E000454D500025632533642F25642563005A29
:1027F00025362E326620005A2020202D2D2D200037
:1028000025632533642525002D2D2D00253368688B
:10281000640025335325337325250055534200208A
:10282000202000205344002025753E257500203FC0
:102830003E257500204625750020463F0020463085
:1028400020200025632D2D3A2D2D202000256325E5
:102850003375682025632563002563253032753A7A
:1028600025303275256325630050494E4441204888
:10287000656174696E670054656D702E2063616CCC
:102880002E202020202020202020200043616C6961
:1028900062726174696F6E20646F6E650043616C73
:1028A0006962726174696E67205A004265642064CF
:1028B0006F6E65004265642048656174696E6700EB
:1028C00048656174696E6720646F6E652E004865A7
:1028D0006174696E67004D373031204534004D37E3
:1028E0003031204533004D373031204532004D37EF
:1028F0003031204531004D373031204530004669B8
:102900006C616D656E74206E72206F7574206F66D9
:102910002072616E676521004164646974696F6E3D
:10292000616C206C6F616420617474656D707420DB
:102930006E722E2025640A00773235783230636C4F
:102940005F63666D0A00773235783230636C5F659D
:102950006E7465720A00506C656173652072656DF6
:102960006F76652066696C616D656E7420616E645A
:10297000207468656E2070726573732074686520BA
:102980006B6E6F622E00456A656374696E672066C0
:10299000696C616D656E74004D4D55206C6F61649E
:1029A000206661696C656420202020200020746FFF
:1029B0006F206C6F6E6720657874727573696F6EC7
:1029C0002070726576656E7465640020636F6C6458
:1029D00020657874727573696F6E207072657665A4
:1029E0006E7465640057616974696E6720666F7202
:1029F000206E6F7A7A6C6520616E64206265642057
:102A0000636F6F6C696E670053656C6620746573E5
:102A100074204F4B0053656C66207465737420738B
:102A20007461727420200046696C616D656E74205B
:102A300073656E736F7200537761707065640046E2
:102A4000726F6E742F6C6566742066616E730041E0
:102A50007869730041786973206C656E67746800EB
:102A60004C6F6F73652070756C6C657900456E6492
:102A700073746F70206E6F742068697400456E64A3
:102A800073746F70004D6F746F7200456E64737471
:102A90006F707300576972696E67206572726F722A
:102AA00000426564202F20486561746572004E6F96
:102AB0007420636F6E6E656374656400486561744D
:102AC00065722F546865726D6973746F7200506C13
:102AD0006561736520636865636B203A0053656CBC
:102AE0006674657374206572726F72202100466986
:102AF0006C616D656E742073656E736F723A005011
:102B000072696E742066616E3A00457874727564FD
:102B100065722066616E3A0043616C69627261742D
:102B2000696E6720686F6D650053656C66746573C8
:102B300074206661696C6564202000416C6C2063C0
:102B40006F72726563742020202020200043686526
:102B5000636B696E672073656E736F7273200043D9
:102B60006865636B696E6720686F74656E642020AA
:102B700000436865636B696E67206265642020208E
:102B8000202000436865636B696E67205A20617876
:102B90006973202000436865636B696E6720592064
:102BA00061786973202000436865636B696E6720F4
:102BB000582061786973202000436865636B696EF3
:102BC0006720656E6473746F7073006C63645F7309
:102BD000656C66636865636B5F6178697320256403
:102BE0002C2025640A004D3834004731205A3135F5
:102BF00020463130303000473238205700256320DE
:102C000041584953205347313D25640A002D2D2D4D
:102C10002D2D2D2D2D2D2D2D2D2D2D2D2D2D2D2DE4
:102C20002D0041786973206C656E67746820646953
:102C300066666572656E63653A252E33660A004DD9
:102C4000656173757265642061786973206C656E67
:102C50006774683A252E33660A0043757272656E92
:102C600074005573656420647572696E67207072B4
:102C7000696E74005049442063616C2E2066696E51
:102C80006973686564005049442063616C2E20209C
:102C900020202020202020202000506C65617365BA
:102CA0002077616974004D31313720466972737441
:102CB000206C617965722063616C2E005072696EC0
:102CC000742070617573656400496E76616C696427
:102CD000205049442063616C2E20726573756C74BA
:102CE000732E204E6F742073746F72656420746F3E
:102CF00020454550524F4D2E004D35303000473164
:102D0000205A3135204631353030004739310047BF
:102D10003120583530205931393020453020463760
:102D200030303000473930004D373032004D3730C9
:102D3000322043004D3730322055004D37303200BD
:102D40004D3730322043004731205A31352046314B
:102D5000353030004739310047312058353020595F
:102D6000313930204530204637303030004D38334F
:102D700000473930004D3834004D31303420533065
:102D8000004D3834004D3730322043004731205851
:102D9000313020593138302046343030300047311E
:102DA000205A31302046313330302E303030004D13
:102DB000313430205330004D31303420533000470F
:102DC0003120452D302E30373530302046323130ED
:102DD000302E3030303030004D3130370047312028
:102DE000583530205935352045332E363237373374
:102DF0000047312058323030205935352045302EAB
:102E00003439333836004731205832303020593782
:102E1000352045332E363237373300473120583589
:102E200030205937352045302E3439333836004775
:102E30003120583530205939352045332E36323738
:102E4000373300473120583230302059393520454A
:102E5000302E343933383600473120583230302064
:102E6000593131352045332E36323737330047312B
:102E70002058353020593131352045302E34393302
:102E80003836004731205835302059313335204508
:102E9000332E363237373300473120583230302026
:102EA000593133352045302E3636313734004731ED
:102EB000205832303020593135352045322E3632C7
:102EC00037373300473120583130302059313535CC
:102ED00020453200473120583735205931353520CB
:102EE00045322E35004731204631303830004731E9
:102EF000205A302E3135302046373230302E3030A7
:102F000030004731205835302059313535004731B0
:102F1000204634303030004D3230342053313030A0
:102F200030004731205A352046373230302E30308D
:102F30003000473120452D312E353030303020469D
:102F4000323130302E3030303030004D38330047A1
:102F5000393000473231004739322045302E3000B9
:102F6000473120583130302E30204531322E352037
:102F700046313030302E30004731205836302E3038
:102F80002045392E302046313030302E3000473148
:102F90002058352E302045342E3020463130303008
:102FA0002E30004731205A302E323020463130301A
:102FB000302E30004731205835352E3020453235FF
:102FC0002046313430302E3000473120592D322EFA
:102FD000302046313030302E3000473120583234E6
:102FE000302E30204532352E3020204632323030DF
:102FF0002E30004739322045302E30004731205ADC
:10300000302E332046313030302E300047312058BA
:1030100035352E302045382E302046323030302E97
:10302000300047312058352E30204533322E3020A5
:1030300046313830302E30004731205835352E306B
:10304000204533322E302046313037332E30004782
:1030500031205A302E342046313030302E30004767
:103060003120592D332E302046313030302E300073
:103070004D3833004739322045302E300047323842
:10308000004D3130392053323135004D3139302047
:10309000533630004D31343020533630004D31300E
:1030A000342053323135004D3130370024F4D430E0
:1030B00050C38E20C2A24017828B7011127A910DDC
:1030C000816CD90AA861E108C758660761514306B7
:1030D0001E4B5D05C145A7041A411104093D980323
:1030E000713931034036DB0265339102D43054022A
:1030F000802E1D02632CEE01752AC501B028A001A7
:10310000102781018F2564012B244B01E02234011B
:10311000AC211F018D200D01801FFC00841EED00DD
:10312000971DDF00B81CD200E61BC600201BBC00A8
:10313000641AB200B219A8000A19A0006A1899000E
:10314000D117910040178B00B516840031167E0010
:10315000B31579003A157300C7146F0058146A004C
:10316000EE1366008813630025135E00C7125B0030
:103170006C12570015125400C111510070114F000C
:1031800021114B00D61049008D1047004610440015
:1031900002104200C00F4000800F3E00420F3C0072
:1031A000060F3B00CB0E3800930E37005C0E350047
:1031B000270E3400F30D3200C10D3100900D3000A8
:1031C000600D2E00320D2D00050D2C00D90C2B00AA
:1031D000AE0C2900850C29005C0C2700350C27005B
:1031E0000E0C2600E80B2400C40B2400A00B2300C7
:1031F0007D0B23005A0B2100390B2100180B2000F6
:10320000F80A1F00D90A1E00BB0A1E009D0A1D00F5
:10321000800A1D00630A1C00470A1B002C0A1B00C1
:10322000110A1A00F7091A00DD091900C40919006A
:10323000AB091900920917007B09180063091700F0
:103240004C09160036091600200916000A09150057
:10325000F5081500E0081400CC081400B8081400A4
:10326000A4081400900813007D0812006B081300D6
:1032700058081200460812003408110023081100F3
:103280001208110001081100F0071000E0071000FB
:10329000D0071000C0071000B0070F00A1071000F2
:1032A00091070E0083070F0074070F0065070E00DB
:1032B00057070E0049070E003B070D002E070E00B2
:1032C00020070D0013070D0006070D00F9060C007E
:1032D000ED060D00E0060C00D4060C00C8060C003C
:1032E000BC060C00B0060C00A4060B0099060C00EE
:1032F0008D060B0082060B0077060B006C060B0098
:1033000061060A0057060B004C060A0042060A0036
:1033100038060A002E060A0024060A001A060A00C9
:103320001006090007060A00FD050900F40509005A
:10333000EB050900E2050900D9050900D0050900DF
:10334000C7050900BE050900B5050800AD05080060
:10335000A50509009C050800940508008C050800D7
:10336000840508007C050800740508006C0507004A
:10337000650508005D050700560508004E050700B5
:10338000470507004005080038050700310507001C
:103390002A050700230507001C050600160507007F
:1033A0000F0507000805060002050700FB040600DC
:1033B000F5040700EE040600E8040600E204070036
:1033C000DB040600D5040600CF040600C90406008D
:1033D000C3040600BD040600B7040600B1040500DE
:1033E000AC040600A6040600A00405009B04060029
:1033F00095040500900406008A0405008504050074
:10340000800406007A0405007504050070040500B8
:103410006B04050066040500610405005C040500FA
:1034200057040500520405004D040500480405003A
:10343000430405003E0404003A0405003504050079
:10344000300404002C0405002704040023040500B4
:103450001E0404001A0404001604050011040400EC
:103460000D04040009040500040404000004040021
:10347000FC030400F8030400F4030400F003040058
:10348000EC030400E8030400E4030400E003040088
:10349000DC030400D8030400D4030400D0030400B8
:1034A000CC030400C8030300C503030024F404D9BB
:1034B000201BC40C5C0E9804C4095F0265077101EF
:1034C000F405F900FB04B30048048700C103690058
:1034D0005803550003034500BE023A008402310040
:1034E00053022A002902250004022000E4011C00E6
:1034F000C8011900AF0117009801140084011300DE
:10350000710110006101100051010E0043010D0016
:1035100036010B002B010B0020010B0015010900E7
:103520000C01090003010800FB000800F30008007B
:10353000EB000700E4000600DE000600D8000600ED
:10354000D2000600CC000500C7000500C20005003F
:10355000BD000400B9000400B5000400B10004007F
:10356000AD000400A9000400A5000300A2000300B0
:103570009F0004009B0003009800030095000200D8
:1035800093000300900003008D0002008B000300F5
:10359000880002008600020084000300810002000F
:1035A0007F0002007D0002007B0002007900020023
:1035B0007700010076000200740002007200010032
:1035C000710002006F0002006D0001006C0002003B
:1035D0006A00010069000200670001006600010046
:1035E000650001006400020062000100610001004A
:1035F000600001005F0002005D0001005C0001004E
:103600005B0001005A000100590001005800010050
:103610005700010056000100550001005400010050
:10362000530000005300010052000100510001004E
:10363000500001004F0001004E0000004E0001004C
:103640004D0001004C0001004B0000004B00010048
:103650004A00010049000100480000004800010044
:103660004700010046000000460001004500000040
:103670004500010044000100430000004300010038
:103680004200000042000100410000004100010032
:10369000400001003F0000003F0001003E0000002C
:1036A0003E0001003D0000003D0001003C00000024
:1036B0003C0000003C0001003B0000003B0001001A
:1036C0003A0000003A000100390000003900010012
:1036D000380000003800000038000100370000000A
:1036E00037000100360000003600000036000100FF
:1036F00035000000350000003500010034000000F6
:1037000034000000340001003300000033000000EA
:1037100033000100320000003200000032000100DE
:1037200031000000310000003100010030000000D5
:1037300030000000300001002F0000002F000000CA
:103740002F0000002F0001002E0000002E000000BE
:103750002E0001002D0000002D0000002D000000B3
:103760002D0001002C0000002C0000002C000000A7
:103770002C0001002B0000002B0000002B0000009B
:103780002B0001002A0000002A0000002A0000008F
:103790002A00010029000000290000002900000083
:1037A0002900000029000100280000002800000076
:1037B0002800000028000000280001002700000069
:1037C000270000002700000027000000270001005C
:1037D0002600000026000000260000002600000051
:1037E0002600010025000000250000002500000043
:1037F0002500000025000000250001002400000035
:103800002400000024000000240000002400010027
:10381000230000002300000023000000230000001C
:10382000230000002300000023000100220000000C
:103830002200000022000000220000002200000000
:1038400022000100210000002100000021000000F2
:1038500021000000210000002100000021000100E3
:1038600020000000200000002000000020000000D8
:1038700020000000200000002000000020000100C7
:103880001F0000001F0000001F0000001F000000BC
:103890001F0000001F0000001F0001001E000000AC
:1038A0001E0000001E0000001E000000526573652F
:1038B0006E640025533A20256C640A25530A0020C3
:1038C00079645F6D696E3D25752079645F6D6178FF
:1038D0003D25752079645F6176673D2575207368A5
:1038E0005F6176673D25750A002073745F73756D9F
:1038F0003D25752079645F73756D3D257520657272
:103900005F73756D3D25752065725F6D61783D252E
:103910006868750A00004B494C4C45442E20005005
:1039200072696E7465722068616C7465642E206BB8
:10393000696C6C28292063616C6C656421004B49BB
:103940004C4C3A2025640A004D31303420496E76C3
:10395000616C696420657874727564657220004DCD
:1039600031303520496E76616C69642065787472F7
:103970007564657220004D31303920496E76616C76
:10398000696420657874727564657220004D323107
:103990003820496E76616C6964206578747275644C
:1039A000657220004D32323120496E76616C696457
:1039B00020657874727564657220006673656E7335
:1039C0006F725F6F715F6D656173737572655F7341
:1039D000746F702C20256868752073616D706C653C
:1039E000730A006673656E736F725F6F715F6D65EA
:1039F0006173737572655F73746172740A004D361A
:103A00003030004653454E534F525F5245434F5658
:103A10004552006673656E736F725F757064617492
:103A200065202D204D3630300A006673656E736F49
:103A3000725F6572725F636E74203D20300A0047CA
:103A400031204533204632303000473120452D3378
:103A50002046323030004D3730310020573A0020B8
:103A6000453A00543A005A206C6976652061646AD0
:103A7000757374206F7574206F662072616E676550
:103A80002E2053657474696E6720746F20302E2069
:103A9000436C69636B20746F20636F6E74696E751D
:103AA000652E005A206C6976652061646A757374AE
:103AB000206F7574206F662072616E67652E2053CB
:103AC000657474696E6720746F20300020423A007C
:103AD00020453A00543A0048656174696E67206475
:103AE000697361626C6564206279207361666574D4
:103AF000792074696D65722E0020003E003E002022
:103B0000003E003E0054656D7065726174757265AB
:103B10002063616C6962726174696F6E20666169AD
:103B20006C65642E20436F6E74696E7565207769CD
:103B30007468207072657373696E6720746865209D
:103B40006B6E6F622E0054656D7065726174757274
:103B5000652063616C6962726174696F6E20646F65
:103B60006E652E20436F6E74696E7565207769747B
:103B700068207072657373696E6720746865206B66
:103B80006E6F622E00473830004D3435004D3435AD
:103B9000205A004737360054656D70657261747540
:103BA00072652063616C6962726174696F6E206610
:103BB00061696C65640054656D70657261747572DD
:103BC000652063616C6962726174696F6E206973EC
:103BD0002066696E697368656420616E6420616344
:103BE000746976652E2054656D702E2063616C6952
:103BF00062726174696F6E2063616E206265206419
:103C0000697361626C656420696E206D656E7520F4
:103C100053657474696E67732D3E54656D702E2004
:103C200063616C2E004E2F41002020300020203197
:103C30000049523A0046494E44413A0050494E44E8
:103C4000413A0053656E736F72207374617465003E
:103C50004578747275646572004D6F7665205A0000
:103C60004D6F76652059004D6F76652058001B5BBF
:103C7000324A437261736820646574656374696F66
:103C80006E2063616E1B5B313B304862652074754A
:103C9000726E6564206F6E206F6E6C7920696E1B8A
:103CA0005B323B30484E6F726D616C206D6F6465A6
:103CB000001B5B324A5741524E494E473A1B5B311B
:103CC0003B3048437261736820646574656374694E
:103CD0006F6E1B5B323B304864697361626C656474
:103CE00020696E1B5B333B3048537465616C7468AC
:103CF000206D6F6465004175746F6C6F6164696EEF
:103D0000672066696C616D656E7420617661696CAF
:103D100061626C65206F6E6C79207768656E2066D5
:103D2000696C616D656E742073656E736F72206966
:103D300073207475726E6564206F6E2E2E2E004592
:103D400052524F523A2046696C616D656E74207311
:103D5000656E736F72206973206E6F742072657365
:103D6000706F6E64696E672C20706C65617365207E
:103D7000636865636B20636F6E6E656374696F6EF5
:103D80002E0043616C69627261746500506C6561FC
:103D90007365206C6F616420504C412066696C61D2
:103DA0006D656E742066697273742E0049732050BD
:103DB0004C412066696C616D656E74206C6F616446
:103DC00065643F0043616E63656C0046696C616DBC
:103DD000656E740053656C65637420504C412066B9
:103DE000696C616D656E743A00000E1315110E005A
:103DF000000004120912040000001C1F11111F0012
:103E0000000006191803130C00040E1F041C000008
:103E100000040A0A0A0A11110E001F1511151F00CD
:103E200000000103161C0800000000110A04110A1A
:103E3000040C12120C000000002563252D313853AC
:103E40002563002563252E3135533A2573253364C8
:103E5000002563252E3132533A25732500457872AB
:103E6000656D65207370616E206F662074686520D3
:103E70005A2076616C756573210000004041000096
:103E800000400000E44200000040000057430000F2
:103E90000040000057430000C4420000E44200001C
:103EA000C442000040410000C44200004041000004
:103EB00042430000E4420000424300005743000038
:103EC0004243205B6F66665D00426564206C6576E8
:103ED000656C696E67206661696C65642E20536548
:103EE0006E736F72206469646E74207472696767A0
:103EF00065722E20446562726973206F6E206E6F4A
:103F00007A7A6C653F2057616974696E6720666FC5
:103F1000722072657365742E004D373032004D3754
:103F20003031004578747275646572006D6D000003
:103F300059005800580059005A002563252E313287
:103F4000533A2573252B30362E33660046696C6153
:103F50006D656E7420657874727564696E6720266D
:103F6000207769746820636F727265637420636F71
:103F70006C6F723F0050726568656174207468658B
:103F8000206E6F7A7A6C6521004552524F523A008A
:103F90004175746F6C6F6164696E672066696C61EE
:103FA0006D656E74206973206163746976652C2079
:103FB0006A75737420707265737320746865206B02
:103FC0006E6F6220616E6420696E73657274206624
:103FD000696C616D656E742E2E2E00546F74616C69
:103FE000207072696E742074696D6500546F74611D
:103FF0006C2066696C616D656E74005072696E74D8
:104000002074696D650046696C616D656E7420751C
:10401000736564005269676874004C656674005982
:104020002064697374616E63652066726F6D206DC4
:10403000696E0053657665726520736B6577005312
:104040006C6967687420736B6577004D6561737583
:1040500072656420736B6577005B303B305D207068
:104060006F696E74206F66667365740041646A756B
:104070007374696E67205A005265736574005265E7
:1040800061722073696465205B756D5D0046726FB7
:104090006E7420736964655B756D5D005269676855
:1040A0007420736964655B756D5D004C6566742092
:1040B00073696465205B756D5D005365742074657C
:1040C0006D70657261747572653A001B5B324A25CA
:1040D00053203A1B5B313B394825382E3266206D20
:1040E0000A2553203A0A25376C6464203A25326841
:1040F000686468203A253032686864206D001B5B74
:10410000324A25533A1B5B313B364825382E3266FE
:104110006D200A2553203A1B5B333B384825326417
:104120006820253032646D202530326473002536D6
:104130002E32666D6D004E2F41001B5B303B3048C8
:1041400025533A0A25530A25533A0A25533A001BA8
:104150005B303B3135484E2F41001B5B303B3135E6
:104160004825342E326601001B5B303B3048255316
:104170003A0A25530A25533A202025352E32660166
:104180000A25533A202025352E326601006F6B0A2E
:104190000073746172740A004D4D55322066697265
:1041A0006D776172652076657273696F6E20696ED6
:1041B00076616C69642E2052657175697265642040
:1041C00076657273696F6E3A206275696C64206EF1
:1041D000756D626572202564206F7220686967685A
:1041E00065722E006673656E736F725F73746F70A5
:1041F0005F616E645F736176655F7072696E740A89
:10420000004D4D55203D3E20276F6B270A00256449
:10421000004D4D5520726574727920617474656D1E
:104220007074206E722E2025640A004D4D55203D7D
:104230003E20276F6B270A00410A004D4D55203C58
:104240003D202741270A004D363030004D363030B2
:10425000204155544F004653454E534F525F5245EF
:10426000434F56455200256868750050300A005388
:10427000330A004D4D55203C3D20275333270A007B
:1042800052300A004D4D55203C3D20275230270A20
:10429000004525640A004D4D55203C3D202745250D
:1042A00064270A0055300A004D4D55203C3D20271B
:1042B0005530270A0043300A004D4D55203C3D2023
:1042C000274330270A004C25640A004D4D55203CF9
:1042D0003D20274C2564270A005425640A004D4DD3
:1042E00055203C3D2027542564270A004D4D55207C
:1042F0002D20454E41424C454400256868750050CC
:10430000300A0050300A004D4D55207665727369B1
:104310006F6E2076616C6964004D4D55203D3E20E6
:104320002725646F6B270A0025750053320A004D5C
:104330004D55203C3D2027533227004D4D55203D03
:104340003E202725646F6B270A002575004D4D55CB
:10435000206E6F7420726573706F6E64696E672073
:104360002D2044495341424C45440053310A004DED
:104370004D55203C3D2027533127004D4D55203DC4
:104380003E2027737461727427006D6D755F6765D9
:10439000745F726573706F6E73652829207265741F
:1043A00075726E696E673A2025640A006D6D755FDF
:1043B0006765745F726573706F6E7365202D206220
:1043C0006567696E206D6F76653A25640A00556EE3
:1043D0006C6F6164696E672066696E697368656495
:1043E00020320A00556E6C6F616420320A00556EEF
:1043F0006C6F6164696E672066696E697368656475
:1044000020310A00556E6C6F616420310A006D6DB9
:10441000755F6765745F726573706F6E7365202D6D
:1044200020626567696E206D6F76653A25640A00C3
:104430004D4D552073746172747320726573706F83
:104440006E64696E670A004D4D55206E6F74207260
:104450006573706F6E64696E670A000000803F5577
:104460005585410000803F0000C8410000004055D4
:104470005505420000C03F00004842000020405562
:10448000558542000070C1ABAAA642000060C10081
:1044900000A0410000C0C00000204100002041AB4E
:1044A000AA3A41000020C15555D540000048C255E8
:1044B0005505424D373031204530004D37303120E1
:1044C0004531004D373031204532004D37303120F5
:1044D0004533004D37303120453400506C656173F1
:1044E0006520757064617465206669726D776172AC
:1044F0006520696E20796F7572204D4D55322E20E2
:1045000057616974696E6720666F722072657365A2
:10451000742E004D4D55204F4B2E20526573756DF6
:10452000696E672E2E2E004D4D55204F4B2E20527A
:104530006573756D696E6720706F736974696F6EEE
:104540002E2E2E004D4D55204F4B2E20526573754B
:104550006D696E672074656D7065726174757265E2
:104560002E2E2E0046697820746865206973737555
:104570006520616E64207468656E20707265737367
:1045800020627574746F6E206F6E204D4D552075CE
:104590006E69742E00507265737320746865206BA9
:1045A0006E6F6220746F20726573756D65206E6F1B
:1045B0007A7A6C652074656D706572617475726568
:1045C0002E004D4D55206E656564732075736572C0
:1045D00020617474656E74696F6E2E0025632533D7
:1045E000642F25642563001000C90210012C0140CE
:1045F00001220170011801B0010E01F00104015007
:1046000002FA00B002F0003003E600D003DC0090B4
:1046100004D2007005C800A006BE000008B400B0B7
:1046200009AA00D00BA000600E960060118C00005B
:1046300015820020197800C01D6E00A0226400B011
:10464000275A00902C500000314600E0343C001006
:10465000383200903A2800603C1E00A03D140080D3
:104660003E0A00203F000070012C0190012701B09C
:10467000012201C0011D01F00118011002130130D7
:10468000020E016002090190020401C002FF000055
:1046900003FA004003F5008003F000D003EB002094
:1046A00004E6007004E100E004DC004005D700C02F
:1046B00005D2004006CD00D006C8008007C30030F8
:1046C00008BE00F008B900C009B400B00AAF00B0DD
:1046D0000BAA00D00CA500000EA000500F9B00C03C
:1046E0001096005012910000148C00C0158700B085
:1046F000178200B0197D00D01B7800001E730040A7
:10470000206E0090226900F024640040275F009032
:10471000295A00E02B5500102E500020304B00107D
:10472000324600E033410090353C001037370070CE
:10473000383200A0392D00B03A2800A03B23006099
:104740003C1E00103D1900903D1400103E0F0070FB
:104750003E0A00C03E0500003F000090137D00B0FF
:10476000157800F0177300601A6E00F01C6900A045
:104770001F640050225F0020255A00E0275500905A
:104780002A5000202D4B00A02F4600F03141001090
:10479000343C00F0353700A037320020392D00605E
:1047A0003A2800703B2300603C1E00203D1900C0E9
:1047B0003D1400403E0F00A03E0A00F03E050040C0
:1047C0003F0000703FFBFF903FF6FFB03FF1FFC09E
:1047D0003FECFFD03FE7FFE03FE2FFF03FDDFFF0BF
:1047E0003FD8FF20484F54454E4420544845524D31
:1047F000414C2052554E41574159002048454154A3
:1048000042454420544845524D414C2052554E415A
:1048100057415900544845524D414C2052554E4144
:104820005741590042454420544845524D414C207F
:1048300052554E415741590020544845524D414C24
:104840002052554E41574159202820505245484545
:10485000415420484F54454E442900205448455265
:104860004D414C2052554E4157415920282050521D
:10487000454845415420484541544245442900504B
:10488000524548454154204552524F5200424544FA
:104890002050524548454154204552524F52004500
:1048A00072723A204D494E54454D502042454400C5
:1048B00054656D70657261747572652068656174A8
:1048C0006564206265642073776974636865642039
:1048D0006F66662E204D494E54454D5020747269C6
:1048E0006767657265642021004572723A204D4900
:1048F0004E54454D50003A20457874727564657287
:10490000207377697463686564206F66662E204D36
:10491000494E54454D5020747269676765726564ED
:10492000202100332E352E310072630062657461E0
:1049300000616C706861006465760078797A636103
:104940006C5F73706972616C322063783D256420FE
:1049500063793D2564207A303D256420647A3D25C5
:1049600064207261646975733D25642061643D252E
:10497000640A000102102020080810204010204086
:104980008002010201080402010102040810204013
:104990008080402010080402018004020180402031
:1049A000100804020108040201010204081020405A
:1049B00080010204081020408010080408801020A4
:1049C0004004408010204004800000220025002880
:1049D000002B002E00310034000201000005010808
:1049E000010B010505050507050808080802020274
:1049F000020A0A080804040404010101010101017A
:104A0000010303030303030303040707070C0C0C50
:104A10000C0C0C0C0C020202020606060606060628
:104A2000060B0B0B0B0B0B0B0B07070A0A0A0A0AE8
:104A30000A050505040404080802746D6332313365
:104A4000305F676F746F5F73746570202564202515
:104A500064202564202564200A002E006F70656E96
:104A6000206661696C65642C2046696C653A20009B
:104A700052756E6E696E672057697A61726420772D
:104A8000696C6C2064656C65746520637572726511
:104A90006E742063616C6962726174696F6E2072FA
:104AA0006573756C747320616E64207374617274C5
:104AB0002066726F6D2074686520626567696E6E2E
:104AC000696E672E20436F6E74696E75653F005086
:104AD000726568656174696E67206E6F7A7A6C655D
:104AE0002E20506C6561736520776169742E0045D6
:104AF0006A65637400556E6C6F6164005573652060
:104B0000756E6C6F616420746F2072656D6F766571
:104B10002066696C616D656E74203120696620695C
:104B2000742070726F747275646573206F7574731E
:104B3000696465206F662074686520726561722003
:104B40004D4D5520747562652E2055736520656A3C
:104B500065637420696620697420697320686964DC
:104B600064656E20696E20747562652E004C6F61FD
:104B700064696E672066696C616D656E7400506C67
:104B80006561736520696E7365727420504C4120B5
:104B900066696C616D656E7420746F207468652041
:104BA00065787472756465722C207468656E207007
:104BB00072657373206B6E6F6220746F206C6F610F
:104BC000642069742E00506C6561736520696E7392
:104BD00065727420504C412066696C616D656E741D
:104BE00020746F2074686520666972737420747510
:104BF0006265206F66204D4D552C207468656E20CF
:104C0000707265737320746865206B6E6F622074B8
:104C10006F206C6F61642069742E00596F7520637A
:104C2000616E20616C7761797320726573756D6553
:104C3000207468652057697A6172642066726F6DAE
:104C40002043616C6962726174696F6E202D3E2031
:104C500057697A6172642E00506C656173652063D8
:104C60006865636B206F75722068616E64626F6F38
:104C70006B20616E642066697820746865207072AC
:104C80006F626C656D2E205468656E207265737559
:104C90006D65207468652057697A61726420627955
:104CA000207265626F6F74696E672074686520702A
:104CB00072696E7465722E00416C6C206973206499
:104CC0006F6E652E204861707079207072696E7405
:104CD000696E672100506C6561736520636C656166
:104CE0006E206865617462656420616E642074681A
:104CF000656E20707265737320746865206B6E6FCB
:104D0000622E00446F20796F752077616E74207475
:104D10006F20726570656174206C617374207374A8
:104D2000657020746F20726561646A7573742064A5
:104D3000697374616E6365206265747765656E2062
:104D40006E6F7A7A6C6520616E642068656174624A
:104D500065643F00492077696C6C207374617274DC
:104D600020746F207072696E74206C696E652061AA
:104D70006E6420796F752077696C6C20677261644E
:104D800075616C6C79206C6F776572207468652032
:104D90006E6F7A7A6C6520627920726F74617469C3
:104DA0006E6720746865206B6E6F622C20756E7460
:104DB000696C20796F75207265616368206F70740B
:104DC000696D616C206865696768742E2043686549
:104DD000636B2074686520706963747572657320F5
:104DE000696E206F75722068616E64626F6F6B20F0
:104DF000696E20636861707465722043616C6962DA
:104E0000726174696F6E2E004E6F7720492077694A
:104E10006C6C2063616C6962726174652064697393
:104E200074616E6365206265747765656E20746970
:104E300070206F6620746865206E6F7A7A6C6520CA
:104E4000616E642068656174626564207375726662
:104E50006163652E00497320697420504C412066BF
:104E6000696C616D656E743F0053656C6563742099
:104E70006E6F7A7A6C6520707265686561742074F3
:104E8000656D7065726174757265207768696368B5
:104E9000206D61746368657320796F7572206D6130
:104EA00074657269616C2E004E6F772049207769B6
:104EB0006C6C2070726568656174206E6F7A7A6CB4
:104EC0006520666F7220504C412E00497320666940
:104ED0006C616D656E74206C6F616465643F004940
:104EE000732066696C616D656E742031206C6F6132
:104EF0006465643F004E6F7720492077696C6C20B1
:104F000070726568656174206E6F7A7A6C65206670
:104F10006F7220504C412E00492077696C6C2072D2
:104F2000756E207A2063616C6962726174696F6E5C
:104F3000206E6F772E004E6F772072656D6F7665ED
:104F4000207468652074657374207072696E7420B3
:104F500066726F6D20737465656C20736865657427
:104F60002E00506C656173652072656D6F766520EB
:104F70007368697070696E672068656C70657273BC
:104F80002066697273742E00492077696C6C2072F8
:104F9000756E2078797A2063616C696272617469D8
:104FA0006F6E206E6F772E2049742077696C6C20AD
:104FB00074616B6520617070726F782E20313220C1
:104FC0006D696E732E0046697273742C20492077C8
:104FD000696C6C2072756E207468652073656C66F0
:104FE0007465737420746F20636865636B206D6FE4
:104FF000737420636F6D6D6F6E20617373656D6286
:105000006C792070726F626C656D732E0048692C2C
:10501000204920616D20796F7572204F7269676930
:105020006E616C20507275736120693320707269F3
:105030006E7465722E20576F756C6420796F7520C1
:105040006C696B65206D6520746F20677569646598
:1050500020796F75207468726F7567682074686551
:105060002073657475702070726F636573733F0091
:10507000452D636F7272656374005A2D636F72728F
:1050800065637400592D636F727265637400582DE7
:10509000636F72726563740053706F6F6C4A6F69EF
:1050A0006E2020205B4E2F415D0053706F6F6C4A65
:1050B0006F696E2020205B6F66665D0053706F6FB6
:1050C0006C4A6F696E202020205B6F6E5D00536F0D
:1050D000756E642020202020205B6C6F75645D005D
:1050E000536F756E642020202020205B6D757465E1
:1050F0005D00536F756E64202020205B73696C65C2
:105100006E745D00536F756E642020202020205B3C
:105110006F6E63655D00536F756E642020202020E4
:10512000205B6C6F75645D00536F72743A202020B1
:105130002020205B6E6F6E655D00536F72743A20A5
:10514000205B616C7068616265745D00536F72749E
:105150003A2020202020205B74696D655D00534457
:10516000206361726420205B6E6F726D616C5D0004
:1051700053442063617264205B666C73684169729A
:105180005D0052506920706F727420202020205BD7
:105190006F6E5D0052506920706F72742020202065
:1051A0005B6F66665D0054656D702E2063616C2ECA
:1051B0002020205B6F6E5D0054656D702E20636152
:1051C0006C2E20205B6F66665D004C696E2E20633E
:1051D0006F7272656374696F6E0046616E732063EF
:1051E0006865636B20205B6F66665D0046616E7369
:1051F00020636865636B2020205B6F6E5D00462E28
:10520000206175746F6C6F6164205B6F66665D0012
:10521000462E206175746F6C6F616420205B6F6E29
:105220005D00462E206175746F6C6F6164205B4E6B
:105230002F415D0046696C2E2073656E736F72207E
:105240005B4E2F415D0044697361626C652073742D
:10525000657070657273004D6F7665206178697353
:105260000054656D70657261747572650054656D8A
:10527000702E2063616C6962726174696F6E005296
:10528000657365742058595A2063616C6962722E87
:10529000005049442063616C6962726174696F6E89
:1052A00000426564206C6576656C20636F72726580
:1052B0006374004D65736820426564204C657665B3
:1052C0006C696E670043616C696272617465205A33
:1052D0000043616C6962726174652058595A0053C9
:1052E000656C6674657374202020202020202020A7
:1052F000004669727374206C617965722063616C19
:105300002E0057697A617264004C6F61642066698F
:105310006C616D656E742035004C6F616420666948
:105320006C616D656E742034004C6F616420666939
:105330006C616D656E742033004C6F61642066692A
:105340006C616D656E742032004C6F61642066691B
:105350006C616D656E742031004C6F616420616C0E
:105360006C0057697A61726420656E6420737461A1
:1053700074653A2025640A0057697A617264207363
:10538000746174653A2025640044697361626C65D8
:10539000206661726D206D6F6465004661726D20DC
:1053A0006E756D626572004D3834004D34340047BF
:1053B00032382057004739390044697361626C659F
:1053C000206661726D206D6F64653F007C3C3E5EBF
:1053D0002B3D3F2F5B5D3B2C2A225C002220666127
:1053E000696C65643A204275666665722066756C04
:1053F0006C21002200656E717565696E6720220060
:105400000000000000110A04505255534133444635
:1054100057002079303D25640A002078303D25640E
:105420000A004F4B0A004552524F522061643D25FD
:10543000640A002020207A303D25640A00207A305A
:105440003D25640A002079303D25640A002078302B
:105450003D25640A0078797A63616C5F66696E64E1
:105460005F706F696E745F63656E746572320A0097
:1054700000002100240027002A002D003000330006
:1054800001010000040107010A01000020002300BF
:10549000260029002C002F0032000001000003012B
:1054A0000601090100000A0B02090C0D0E08070392
:1054B00004010000000000000000000000000000E7
:1054C00000000000000000000000000000000000DC
:1054D0001211100000000000000000000000000099
:1054E00000000000000000000000000000000000BC
:1054F000000000000000000000004572726F722082
:105500002D20737461746963206D656D6F727920ED
:10551000686173206265656E206F76657277726967
:105520007474656E00436172642072656D6F766598
:105530006400436F6E74696E7565207769746820C6
:10554000616E6F7468657220626F7764656E3F008C
:1055500025002020202020200020202020202000A6
:1055600045524153494E4720616C6C20646174611F
:1055700000466163746F7279205245534554004C64
:105580006F61642066696C616D656E742035004CD6
:105590006F61642066696C616D656E742034004CC7
:1055A0006F61642066696C616D656E742033004CB8
:1055B0006F61642066696C616D656E742032004CA9
:1055C0006F61642066696C616D656E7420310045A1
:1055D0006A6563742066696C616D656E7420350060
:1055E000456A6563742066696C616D656E7420340C
:1055F00000456A6563742066696C616D656E742030
:105600003300456A6563742066696C616D656E740C
:10561000203200456A6563742066696C616D656E51
:1056200074203100506C656173652070756C6C205E
:105630006F75742066696C616D656E7420696D6D3F
:105640006564696174656C7900556E6C6F6164693D
:105650006E672066696C616D656E74005265737566
:105660006D696E67207072696E7400537570706F2B
:105670007274004661696C207374617473204D4DBF
:1056800055004661696C20737461747300537461D2
:105690007469737469637320200043616C6962727A
:1056A0006174696F6E004175746F4C6F6164206640
:1056B000696C616D656E7400456A65637420666926
:1056C0006C616D656E7400556E6C6F616420666907
:1056D0006C616D656E74004C6F616420746F206E38
:1056E0006F7A7A6C65004C6F61642066696C616DDD
:1056F000656E74004E6F20534420636172640050E5
:1057000072696E742066726F6D2053440052657327
:10571000756D65207072696E7400506175736520D7
:105720007072696E740050726568656174005475BA
:105730006E65004C6976652061646A757374205AE1
:105740000046696E697368696E67206D6F76656D76
:10575000656E747300536F756E64202020202020C6
:105760005B6C6F75645D00536F756E642020202044
:1057700020205B6D7574655D00536F756E6420202D
:1057800020205B73696C656E745D00536F756E6489
:105790002020202020205B6F6E63655D00536F75B5
:1057A0006E642020202020205B6C6F75645D0043B8
:1057B00072617368206465742E20205B4E2F415DFA
:1057C000004372617368206465742E2020205B6F33
:1057D0006E5D004372617368206465742E20205BE7
:1057E0006F66665D004D6F6465202020205B5374FA
:1057F00065616C74685D004D6F6465202020202019
:105800005B4E6F726D616C5D0046696C2E20736536
:105810006E736F7220205B6F6E5D0046696C2E2088
:1058200073656E736F72205B6F66665D00436861BF
:105830006E67652066696C616D656E7400466C6F9D
:10584000770053706565640046616E20737065650E
:105850006400426564004E6F7A7A6C65005365742B
:1058600074696E6773005072696E742061626F7242
:105870007465640043686F6F736520636F6C6F724B
:105880003A004D3730322043004661726D206E750C
:105890006D626572004D363030004D3234004D324D
:1058A00033202573006175746F25692E67002220EF
:1058B0006661696C65643A20427566666572206649
:1058C000756C6C2100456E717565696E6720746F2B
:1058D000207468652066726F6E743A2022004572EB
:1058E000726F723A002200456E717565696E6720AD
:1058F000746F207468652066726F6E743A2022009F
:105900006563686F3A00454550524F4D20457272AD
:105910006F72004572723A205052494E54204641EF
:105920004E204552524F52005072696E742066618B
:105930006E207370656564206973206C6F77657283
:10594000207468656E2065787065637465640045D1
:1059500072723A20455854522E2046414E204552EC
:10596000524F520045787472756465722066616E9C
:10597000207370656564206973206C6F7765722091
:105980007468656E206578706563746564002F2F98
:1059900020616374696F6E3A70617573650045725A
:1059A000723A204D415854454D50003A2045787484
:1059B0007275646572207377697463686564206FBB
:1059C00066662E204D415854454D502074726967CB
:1059D00067657265642021004572723A204D415816
:1059E00054454D50204245440054656D70657261C8
:1059F00074757265206865617465642062656420F1
:105A00007377697463686564206F66662E204D4104
:105A10005854454D502074726967676572656420FB
:105A20002100504154393132355F5245535F593D61
:105A3000256868750A00504154393132355F524546
:105A4000535F583D256868750A00555341525432DA
:105A50002072782046756C6C2121210A00536574F0
:105A600074696E67732053746F7265640053746F4A
:105A70007265642073657474696E677320726574EF
:105A80007269657665640048617264636F64656419
:105A90002044656661756C742053657474696E6723
:105AA00073204C6F6164656400563200000000C8CA
:105AB000420000C8420000C84300804F4400004834
:105AC0004300004843000040410000F042E803006A
:105AD00000E8030000C80000008813000000409C9C
